{
  "_format": "hh-sol-artifact-1",
  "contractName": "GuildNFT",
  "sourceName": "contracts/GuildNFT.sol",
  "abi": [
    {
      "inputs": [],
      "stateMutability": "nonpayable",
      "type": "constructor"
    },
    {
      "inputs": [
        {
          "internalType": "address",
          "name": "target",
          "type": "address"
        }
      ],
      "name": "AddressEmptyCode",
      "type": "error"
    },
    {
      "inputs": [
        {
          "internalType": "address",
          "name": "implementation",
          "type": "address"
        }
      ],
      "name": "ERC1967InvalidImplementation",
      "type": "error"
    },
    {
      "inputs": [],
      "name": "ERC1967NonPayable",
      "type": "error"
    },
    {
      "inputs": [
        {
          "internalType": "address",
          "name": "sender",
          "type": "address"
        },
        {
          "internalType": "uint256",
          "name": "tokenId",
          "type": "uint256"
        },
        {
          "internalType": "address",
          "name": "owner",
          "type": "address"
        }
      ],
      "name": "ERC721IncorrectOwner",
      "type": "error"
    },
    {
      "inputs": [
        {
          "internalType": "address",
          "name": "operator",
          "type": "address"
        },
        {
          "internalType": "uint256",
          "name": "tokenId",
          "type": "uint256"
        }
      ],
      "name": "ERC721InsufficientApproval",
      "type": "error"
    },
    {
      "inputs": [
        {
          "internalType": "address",
          "name": "approver",
          "type": "address"
        }
      ],
      "name": "ERC721InvalidApprover",
      "type": "error"
    },
    {
      "inputs": [
        {
          "internalType": "address",
          "name": "operator",
          "type": "address"
        }
      ],
      "name": "ERC721InvalidOperator",
      "type": "error"
    },
    {
      "inputs": [
        {
          "internalType": "address",
          "name": "owner",
          "type": "address"
        }
      ],
      "name": "ERC721InvalidOwner",
      "type": "error"
    },
    {
      "inputs": [
        {
          "internalType": "address",
          "name": "receiver",
          "type": "address"
        }
      ],
      "name": "ERC721InvalidReceiver",
      "type": "error"
    },
    {
      "inputs": [
        {
          "internalType": "address",
          "name": "sender",
          "type": "address"
        }
      ],
      "name": "ERC721InvalidSender",
      "type": "error"
    },
    {
      "inputs": [
        {
          "internalType": "uint256",
          "name": "tokenId",
          "type": "uint256"
        }
      ],
      "name": "ERC721NonexistentToken",
      "type": "error"
    },
    {
      "inputs": [],
      "name": "FailedCall",
      "type": "error"
    },
    {
      "inputs": [],
      "name": "InvalidInitialization",
      "type": "error"
    },
    {
      "inputs": [],
      "name": "NotInitializing",
      "type": "error"
    },
    {
      "inputs": [
        {
          "internalType": "address",
          "name": "owner",
          "type": "address"
        }
      ],
      "name": "OwnableInvalidOwner",
      "type": "error"
    },
    {
      "inputs": [
        {
          "internalType": "address",
          "name": "account",
          "type": "address"
        }
      ],
      "name": "OwnableUnauthorizedAccount",
      "type": "error"
    },
    {
      "inputs": [],
      "name": "UUPSUnauthorizedCallContext",
      "type": "error"
    },
    {
      "inputs": [
        {
          "internalType": "bytes32",
          "name": "slot",
          "type": "bytes32"
        }
      ],
      "name": "UUPSUnsupportedProxiableUUID",
      "type": "error"
    },
    {
      "anonymous": false,
      "inputs": [
        {
          "indexed": true,
          "internalType": "address",
          "name": "owner",
          "type": "address"
        },
        {
          "indexed": true,
          "internalType": "address",
          "name": "approved",
          "type": "address"
        },
        {
          "indexed": true,
          "internalType": "uint256",
          "name": "tokenId",
          "type": "uint256"
        }
      ],
      "name": "Approval",
      "type": "event"
    },
    {
      "anonymous": false,
      "inputs": [
        {
          "indexed": true,
          "internalType": "address",
          "name": "owner",
          "type": "address"
        },
        {
          "indexed": true,
          "internalType": "address",
          "name": "operator",
          "type": "address"
        },
        {
          "indexed": false,
          "internalType": "bool",
          "name": "approved",
          "type": "bool"
        }
      ],
      "name": "ApprovalForAll",
      "type": "event"
    },
    {
      "anonymous": false,
      "inputs": [
        {
          "indexed": true,
          "internalType": "uint256",
          "name": "guildId",
          "type": "uint256"
        },
        {
          "indexed": false,
          "internalType": "string",
          "name": "name",
          "type": "string"
        }
      ],
      "name": "GuildCreated",
      "type": "event"
    },
    {
      "anonymous": false,
      "inputs": [
        {
          "indexed": false,
          "internalType": "uint64",
          "name": "version",
          "type": "uint64"
        }
      ],
      "name": "Initialized",
      "type": "event"
    },
    {
      "anonymous": false,
      "inputs": [
        {
          "indexed": true,
          "internalType": "address",
          "name": "to",
          "type": "address"
        },
        {
          "indexed": false,
          "internalType": "uint256",
          "name": "tokenId",
          "type": "uint256"
        },
        {
          "indexed": false,
          "internalType": "uint256",
          "name": "guildId",
          "type": "uint256"
        }
      ],
      "name": "MemberMinted",
      "type": "event"
    },
    {
      "anonymous": false,
      "inputs": [
        {
          "indexed": false,
          "internalType": "address",
          "name": "member",
          "type": "address"
        },
        {
          "indexed": false,
          "internalType": "uint256",
          "name": "tokenId",
          "type": "uint256"
        },
        {
          "indexed": false,
          "internalType": "uint256",
          "name": "guildId",
          "type": "uint256"
        }
      ],
      "name": "MemberRemoved",
      "type": "event"
    },
    {
      "anonymous": false,
      "inputs": [
        {
          "indexed": false,
          "internalType": "uint256",
          "name": "tokenId",
          "type": "uint256"
        },
        {
          "indexed": false,
          "internalType": "enum GuildNFT.Role",
          "name": "newRole",
          "type": "uint8"
        }
      ],
      "name": "MemberUpgraded",
      "type": "event"
    },
    {
      "anonymous": false,
      "inputs": [
        {
          "indexed": true,
          "internalType": "address",
          "name": "previousOwner",
          "type": "address"
        },
        {
          "indexed": true,
          "internalType": "address",
          "name": "newOwner",
          "type": "address"
        }
      ],
      "name": "OwnershipTransferred",
      "type": "event"
    },
    {
      "anonymous": false,
      "inputs": [
        {
          "indexed": true,
          "internalType": "address",
          "name": "from",
          "type": "address"
        },
        {
          "indexed": true,
          "internalType": "address",
          "name": "to",
          "type": "address"
        },
        {
          "indexed": true,
          "internalType": "uint256",
          "name": "tokenId",
          "type": "uint256"
        }
      ],
      "name": "Transfer",
      "type": "event"
    },
    {
      "anonymous": false,
      "inputs": [
        {
          "indexed": true,
          "internalType": "address",
          "name": "implementation",
          "type": "address"
        }
      ],
      "name": "Upgraded",
      "type": "event"
    },
    {
      "inputs": [],
      "name": "UPGRADE_INTERFACE_VERSION",
      "outputs": [
        {
          "internalType": "string",
          "name": "",
          "type": "string"
        }
      ],
      "stateMutability": "view",
      "type": "function"
    },
    {
      "inputs": [
        {
          "internalType": "address",
          "name": "to",
          "type": "address"
        },
        {
          "internalType": "uint256",
          "name": "tokenId",
          "type": "uint256"
        }
      ],
      "name": "approve",
      "outputs": [],
      "stateMutability": "nonpayable",
      "type": "function"
    },
    {
      "inputs": [
        {
          "internalType": "address",
          "name": "owner",
          "type": "address"
        }
      ],
      "name": "balanceOf",
      "outputs": [
        {
          "internalType": "uint256",
          "name": "",
          "type": "uint256"
        }
      ],
      "stateMutability": "view",
      "type": "function"
    },
    {
      "inputs": [
        {
          "internalType": "string",
          "name": "name",
          "type": "string"
        }
      ],
      "name": "createGuild",
      "outputs": [
        {
          "internalType": "uint256",
          "name": "",
          "type": "uint256"
        }
      ],
      "stateMutability": "nonpayable",
      "type": "function"
    },
    {
      "inputs": [
        {
          "internalType": "uint256",
          "name": "guildId",
          "type": "uint256"
        }
      ],
      "name": "disableGuild",
      "outputs": [
        {
          "internalType": "bool",
          "name": "",
          "type": "bool"
        }
      ],
      "stateMutability": "nonpayable",
      "type": "function"
    },
    {
      "inputs": [
        {
          "internalType": "uint256",
          "name": "guildId",
          "type": "uint256"
        }
      ],
      "name": "enableGuild",
      "outputs": [
        {
          "internalType": "bool",
          "name": "",
          "type": "bool"
        }
      ],
      "stateMutability": "nonpayable",
      "type": "function"
    },
    {
      "inputs": [],
      "name": "getAllGuilds",
      "outputs": [
        {
          "components": [
            {
              "internalType": "uint256",
              "name": "id",
              "type": "uint256"
            },
            {
              "internalType": "string",
              "name": "name",
              "type": "string"
            },
            {
              "internalType": "bool",
              "name": "active",
              "type": "bool"
            }
          ],
          "internalType": "struct GuildNFT.Guild[]",
          "name": "",
          "type": "tuple[]"
        }
      ],
      "stateMutability": "view",
      "type": "function"
    },
    {
      "inputs": [
        {
          "internalType": "uint256",
          "name": "tokenId",
          "type": "uint256"
        }
      ],
      "name": "getApproved",
      "outputs": [
        {
          "internalType": "address",
          "name": "",
          "type": "address"
        }
      ],
      "stateMutability": "view",
      "type": "function"
    },
    {
      "inputs": [
        {
          "internalType": "uint256",
          "name": "guildId",
          "type": "uint256"
        }
      ],
      "name": "getGuild",
      "outputs": [
        {
          "components": [
            {
              "internalType": "uint256",
              "name": "id",
              "type": "uint256"
            },
            {
              "internalType": "string",
              "name": "name",
              "type": "string"
            },
            {
              "internalType": "bool",
              "name": "active",
              "type": "bool"
            }
          ],
          "internalType": "struct GuildNFT.Guild",
          "name": "",
          "type": "tuple"
        }
      ],
      "stateMutability": "view",
      "type": "function"
    },
    {
      "inputs": [
        {
          "internalType": "uint256",
          "name": "guildId",
          "type": "uint256"
        }
      ],
      "name": "getGuildMembers",
      "outputs": [
        {
          "internalType": "address[]",
          "name": "",
          "type": "address[]"
        }
      ],
      "stateMutability": "view",
      "type": "function"
    },
    {
      "inputs": [
        {
          "internalType": "address",
          "name": "wallet",
          "type": "address"
        }
      ],
      "name": "getMemberURI",
      "outputs": [
        {
          "internalType": "string",
          "name": "",
          "type": "string"
        }
      ],
      "stateMutability": "view",
      "type": "function"
    },
    {
      "inputs": [
        {
          "internalType": "uint256",
          "name": "tokenId",
          "type": "uint256"
        }
      ],
      "name": "getRole",
      "outputs": [
        {
          "internalType": "enum GuildNFT.Role",
          "name": "",
          "type": "uint8"
        }
      ],
      "stateMutability": "view",
      "type": "function"
    },
    {
      "inputs": [
        {
          "internalType": "address",
          "name": "wallet",
          "type": "address"
        }
      ],
      "name": "getRoleByWallet",
      "outputs": [
        {
          "internalType": "enum GuildNFT.Role",
          "name": "",
          "type": "uint8"
        }
      ],
      "stateMutability": "view",
      "type": "function"
    },
    {
      "inputs": [],
      "name": "initialize",
      "outputs": [],
      "stateMutability": "nonpayable",
      "type": "function"
    },
    {
      "inputs": [
        {
          "internalType": "address",
          "name": "owner",
          "type": "address"
        },
        {
          "internalType": "address",
          "name": "operator",
          "type": "address"
        }
      ],
      "name": "isApprovedForAll",
      "outputs": [
        {
          "internalType": "bool",
          "name": "",
          "type": "bool"
        }
      ],
      "stateMutability": "view",
      "type": "function"
    },
    {
      "inputs": [
        {
          "internalType": "address",
          "name": "wallet",
          "type": "address"
        }
      ],
      "name": "isMember",
      "outputs": [
        {
          "internalType": "bool",
          "name": "",
          "type": "bool"
        }
      ],
      "stateMutability": "view",
      "type": "function"
    },
    {
      "inputs": [
        {
          "internalType": "address",
          "name": "wallet",
          "type": "address"
        },
        {
          "internalType": "uint256",
          "name": "guildId",
          "type": "uint256"
        }
      ],
      "name": "isMemberOfGuild",
      "outputs": [
        {
          "internalType": "bool",
          "name": "",
          "type": "bool"
        }
      ],
      "stateMutability": "view",
      "type": "function"
    },
    {
      "inputs": [
        {
          "internalType": "address",
          "name": "to",
          "type": "address"
        },
        {
          "internalType": "string",
          "name": "uri",
          "type": "string"
        },
        {
          "internalType": "uint256",
          "name": "guildId",
          "type": "uint256"
        }
      ],
      "name": "mintMember",
      "outputs": [],
      "stateMutability": "nonpayable",
      "type": "function"
    },
    {
      "inputs": [],
      "name": "name",
      "outputs": [
        {
          "internalType": "string",
          "name": "",
          "type": "string"
        }
      ],
      "stateMutability": "view",
      "type": "function"
    },
    {
      "inputs": [],
      "name": "owner",
      "outputs": [
        {
          "internalType": "address",
          "name": "",
          "type": "address"
        }
      ],
      "stateMutability": "view",
      "type": "function"
    },
    {
      "inputs": [
        {
          "internalType": "uint256",
          "name": "tokenId",
          "type": "uint256"
        }
      ],
      "name": "ownerOf",
      "outputs": [
        {
          "internalType": "address",
          "name": "",
          "type": "address"
        }
      ],
      "stateMutability": "view",
      "type": "function"
    },
    {
      "inputs": [],
      "name": "proxiableUUID",
      "outputs": [
        {
          "internalType": "bytes32",
          "name": "",
          "type": "bytes32"
        }
      ],
      "stateMutability": "view",
      "type": "function"
    },
    {
      "inputs": [
        {
          "internalType": "address",
          "name": "member",
          "type": "address"
        }
      ],
      "name": "removeGuildMember",
      "outputs": [],
      "stateMutability": "nonpayable",
      "type": "function"
    },
    {
      "inputs": [],
      "name": "renounceOwnership",
      "outputs": [],
      "stateMutability": "nonpayable",
      "type": "function"
    },
    {
      "inputs": [
        {
          "internalType": "address",
          "name": "from",
          "type": "address"
        },
        {
          "internalType": "address",
          "name": "to",
          "type": "address"
        },
        {
          "internalType": "uint256",
          "name": "tokenId",
          "type": "uint256"
        }
      ],
      "name": "safeTransferFrom",
      "outputs": [],
      "stateMutability": "nonpayable",
      "type": "function"
    },
    {
      "inputs": [
        {
          "internalType": "address",
          "name": "from",
          "type": "address"
        },
        {
          "internalType": "address",
          "name": "to",
          "type": "address"
        },
        {
          "internalType": "uint256",
          "name": "tokenId",
          "type": "uint256"
        },
        {
          "internalType": "bytes",
          "name": "data",
          "type": "bytes"
        }
      ],
      "name": "safeTransferFrom",
      "outputs": [],
      "stateMutability": "nonpayable",
      "type": "function"
    },
    {
      "inputs": [
        {
          "internalType": "address",
          "name": "operator",
          "type": "address"
        },
        {
          "internalType": "bool",
          "name": "approved",
          "type": "bool"
        }
      ],
      "name": "setApprovalForAll",
      "outputs": [],
      "stateMutability": "nonpayable",
      "type": "function"
    },
    {
      "inputs": [
        {
          "internalType": "bytes4",
          "name": "interfaceId",
          "type": "bytes4"
        }
      ],
      "name": "supportsInterface",
      "outputs": [
        {
          "internalType": "bool",
          "name": "",
          "type": "bool"
        }
      ],
      "stateMutability": "view",
      "type": "function"
    },
    {
      "inputs": [],
      "name": "symbol",
      "outputs": [
        {
          "internalType": "string",
          "name": "",
          "type": "string"
        }
      ],
      "stateMutability": "view",
      "type": "function"
    },
    {
      "inputs": [
        {
          "internalType": "uint256",
          "name": "tokenId",
          "type": "uint256"
        }
      ],
      "name": "tokenURI",
      "outputs": [
        {
          "internalType": "string",
          "name": "",
          "type": "string"
        }
      ],
      "stateMutability": "view",
      "type": "function"
    },
    {
      "inputs": [
        {
          "internalType": "address",
          "name": "from",
          "type": "address"
        },
        {
          "internalType": "address",
          "name": "to",
          "type": "address"
        },
        {
          "internalType": "uint256",
          "name": "tokenId",
          "type": "uint256"
        }
      ],
      "name": "transferFrom",
      "outputs": [],
      "stateMutability": "nonpayable",
      "type": "function"
    },
    {
      "inputs": [
        {
          "internalType": "address",
          "name": "newOwner",
          "type": "address"
        }
      ],
      "name": "transferOwnership",
      "outputs": [],
      "stateMutability": "nonpayable",
      "type": "function"
    },
    {
      "inputs": [
        {
          "internalType": "address",
          "name": "member",
          "type": "address"
        },
        {
          "internalType": "enum GuildNFT.Role",
          "name": "newRole",
          "type": "uint8"
        }
      ],
      "name": "upgradeMember",
      "outputs": [],
      "stateMutability": "nonpayable",
      "type": "function"
    },
    {
      "inputs": [
        {
          "internalType": "address",
          "name": "newImplementation",
          "type": "address"
        },
        {
          "internalType": "bytes",
          "name": "data",
          "type": "bytes"
        }
      ],
      "name": "upgradeToAndCall",
      "outputs": [],
      "stateMutability": "payable",
      "type": "function"
    }
  ],
  "bytecode": "0x60a06040523073ffffffffffffffffffffffffffffffffffffffff1660809073ffffffffffffffffffffffffffffffffffffffff16815250348015610042575f5ffd5b5061005161005660201b60201c565b6101d1565b5f61006561015460201b60201c565b9050805f0160089054906101000a900460ff16156100af576040517ff92ee8a900000000000000000000000000000000000000000000000000000000815260040160405180910390fd5b67ffffffffffffffff8016815f015f9054906101000a900467ffffffffffffffff1667ffffffffffffffff16146101515767ffffffffffffffff815f015f6101000a81548167ffffffffffffffff021916908367ffffffffffffffff1602179055507fc7f505b2f371ae2175ee4913f4499e1f2633a7b5936321eed1cdaeb6115181d267ffffffffffffffff60405161014891906101b8565b60405180910390a15b50565b5f5f61016461016d60201b60201c565b90508091505090565b5f7ff0c57e16840df040f15088dc2f81fe391c3923bec73e23a9662efc9c229c6a005f1b905090565b5f67ffffffffffffffff82169050919050565b6101b281610196565b82525050565b5f6020820190506101cb5f8301846101a9565b92915050565b6080516148556101f75f395f81816124f80152818161254d015261270701526148555ff3fe6080604052600436106101f8575f3560e01c80636352211e1161010c578063a22cb4651161009f578063b88d4fde1161006e578063b88d4fde14610764578063c87b56dd1461078c578063d3e96693146107c8578063e985e9c514610804578063f2fde38b14610840576101f8565b8063a22cb4651461069a578063a230c524146106c2578063ad3cb1cc146106fe578063ad8a1b7e14610728576101f8565b8063715018a6116100db578063715018a61461061a5780638129fc1c146106305780638da5cb5b1461064657806395d89b4114610670576101f8565b80636352211e1461052a57806368d229d3146105665780636f1f8077146105a257806370a08231146105de576101f8565b80633a569ef91161018f57806352d1902d1161015e57806352d1902d146104245780635312fdc21461044e5780635532204b1461048a57806357dda5ae146104c65780636010fe6d146104ee576101f8565b80633a569ef91461037a5780633c9c7eef146103b657806342842e0e146103e05780634f1ef28614610408576101f8565b80631c0e61dc116101cb5780631c0e61dc146102c657806321b741de1461030257806323b872dd1461032a578063251cec5014610352576101f8565b806301ffc9a7146101fc57806306fdde0314610238578063081812fc14610262578063095ea7b31461029e575b5f5ffd5b348015610207575f5ffd5b50610222600480360381019061021d919061360a565b610868565b60405161022f919061364f565b60405180910390f35b348015610243575f5ffd5b5061024c610949565b60405161025991906136d8565b60405180910390f35b34801561026d575f5ffd5b506102886004803603810190610283919061372b565b6109e6565b6040516102959190613795565b60405180910390f35b3480156102a9575f5ffd5b506102c460048036038101906102bf91906137d8565b610a01565b005b3480156102d1575f5ffd5b506102ec60048036038101906102e79190613942565b610a17565b6040516102f99190613998565b60405180910390f35b34801561030d575f5ffd5b50610328600480360381019061032391906139b1565b610aee565b005b348015610335575f5ffd5b50610350600480360381019061034b91906139dc565b610e69565b005b34801561035d575f5ffd5b5061037860048036038101906103739190613a4f565b610f68565b005b348015610385575f5ffd5b506103a0600480360381019061039b91906139b1565b611073565b6040516103ad91906136d8565b60405180910390f35b3480156103c1575f5ffd5b506103ca611156565b6040516103d79190613bfb565b60405180910390f35b3480156103eb575f5ffd5b50610406600480360381019061040191906139dc565b6112d4565b005b610422600480360381019061041d9190613cb9565b6112f3565b005b34801561042f575f5ffd5b50610438611312565b6040516104459190613d2b565b60405180910390f35b348015610459575f5ffd5b50610474600480360381019061046f919061372b565b611343565b6040516104819190613db7565b60405180910390f35b348015610495575f5ffd5b506104b060048036038101906104ab919061372b565b611369565b6040516104bd919061364f565b60405180910390f35b3480156104d1575f5ffd5b506104ec60048036038101906104e79190613dd0565b61141c565b005b3480156104f9575f5ffd5b50610514600480360381019061050f91906137d8565b6116ad565b604051610521919061364f565b60405180910390f35b348015610535575f5ffd5b50610550600480360381019061054b919061372b565b611709565b60405161055d9190613795565b60405180910390f35b348015610571575f5ffd5b5061058c600480360381019061058791906139b1565b61171a565b6040516105999190613db7565b60405180910390f35b3480156105ad575f5ffd5b506105c860048036038101906105c3919061372b565b611782565b6040516105d5919061364f565b60405180910390f35b3480156105e9575f5ffd5b5061060460048036038101906105ff91906139b1565b611836565b6040516106119190613998565b60405180910390f35b348015610625575f5ffd5b5061062e6118fa565b005b34801561063b575f5ffd5b5061064461190d565b005b348015610651575f5ffd5b5061065a611b01565b6040516106679190613795565b60405180910390f35b34801561067b575f5ffd5b50610684611b36565b60405161069191906136d8565b60405180910390f35b3480156106a5575f5ffd5b506106c060048036038101906106bb9190613e66565b611bd4565b005b3480156106cd575f5ffd5b506106e860048036038101906106e391906139b1565b611bea565b6040516106f5919061364f565b60405180910390f35b348015610709575f5ffd5b50610712611bfd565b60405161071f91906136d8565b60405180910390f35b348015610733575f5ffd5b5061074e6004803603810190610749919061372b565b611c36565b60405161075b9190613f5b565b60405180910390f35b34801561076f575f5ffd5b5061078a60048036038101906107859190613f7b565b611d34565b005b348015610797575f5ffd5b506107b260048036038101906107ad919061372b565b611d59565b6040516107bf91906136d8565b60405180910390f35b3480156107d3575f5ffd5b506107ee60048036038101906107e9919061372b565b611dfa565b6040516107fb9190614048565b60405180910390f35b34801561080f575f5ffd5b5061082a60048036038101906108259190614068565b611f3a565b604051610837919061364f565b60405180910390f35b34801561084b575f5ffd5b50610866600480360381019061086191906139b1565b611fd6565b005b5f7f80ac58cd000000000000000000000000000000000000000000000000000000007bffffffffffffffffffffffffffffffffffffffffffffffffffffffff1916827bffffffffffffffffffffffffffffffffffffffffffffffffffffffff1916148061093257507f5b5e139f000000000000000000000000000000000000000000000000000000007bffffffffffffffffffffffffffffffffffffffffffffffffffffffff1916827bffffffffffffffffffffffffffffffffffffffffffffffffffffffff1916145b8061094257506109418261205a565b5b9050919050565b60605f6109546120c3565b9050805f018054610964906140d3565b80601f0160208091040260200160405190810160405280929190818152602001828054610990906140d3565b80156109db5780601f106109b2576101008083540402835291602001916109db565b820191905f5260205f20905b8154815290600101906020018083116109be57829003601f168201915b505050505091505090565b5f6109f0826120ea565b506109fa82612170565b9050919050565b610a138282610a0e6121b7565b6121be565b5050565b5f610a206121d0565b60015f815480929190610a3290614130565b9190505550604051806060016040528060015481526020018381526020016001151581525060075f60015481526020019081526020015f205f820151815f01556020820151816001019081610a879190614317565b506040820151816002015f6101000a81548160ff0219169083151502179055509050506001547fc2d952e65bda3b2becc3c61103eaade592ee66297ecfc7c4a68de9173c20938f83604051610adc91906136d8565b60405180910390a26001549050919050565b610af66121d0565b805f610b0182611836565b11610b41576040517f08c379a0000000000000000000000000000000000000000000000000000000008152600401610b3890614430565b60405180910390fd5b5f60065f8473ffffffffffffffffffffffffffffffffffffffff1673ffffffffffffffffffffffffffffffffffffffff1681526020019081526020015f205490505f60045f8573ffffffffffffffffffffffffffffffffffffffff1673ffffffffffffffffffffffffffffffffffffffff1681526020019081526020015f205490505f60085f8481526020019081526020015f2090505f5f90505b8180549050811015610d4d578573ffffffffffffffffffffffffffffffffffffffff16828281548110610c1257610c1161444e565b5b905f5260205f20015f9054906101000a900473ffffffffffffffffffffffffffffffffffffffff1673ffffffffffffffffffffffffffffffffffffffff1603610d40578160018380549050610c67919061447b565b81548110610c7857610c7761444e565b5b905f5260205f20015f9054906101000a900473ffffffffffffffffffffffffffffffffffffffff16828281548110610cb357610cb261444e565b5b905f5260205f20015f6101000a81548173ffffffffffffffffffffffffffffffffffffffff021916908373ffffffffffffffffffffffffffffffffffffffff16021790555081805480610d0957610d086144ae565b5b600190038181905f5260205f20015f6101000a81549073ffffffffffffffffffffffffffffffffffffffff02191690559055610d4d565b8080600101915050610bdc565b5060065f8673ffffffffffffffffffffffffffffffffffffffff1673ffffffffffffffffffffffffffffffffffffffff1681526020019081526020015f205f905560045f8673ffffffffffffffffffffffffffffffffffffffff1673ffffffffffffffffffffffffffffffffffffffff1681526020019081526020015f205f905560055f8381526020019081526020015f205f905560035f8381526020019081526020015f205f6101000a81549060ff021916905560025f8381526020019081526020015f205f610e1e919061352b565b610e2782612257565b7fa182730913550d27dc6c5813fad297cb0785871bec3d0152c5650e59c5d39d60858385604051610e5a939291906144db565b60405180910390a15050505050565b5f73ffffffffffffffffffffffffffffffffffffffff168273ffffffffffffffffffffffffffffffffffffffff1603610ed9575f6040517f64a0ae92000000000000000000000000000000000000000000000000000000008152600401610ed09190613795565b60405180910390fd5b5f610eec8383610ee76121b7565b6122d9565b90508373ffffffffffffffffffffffffffffffffffffffff168173ffffffffffffffffffffffffffffffffffffffff1614610f62578382826040517f64283d7b000000000000000000000000000000000000000000000000000000008152600401610f5993929190614510565b60405180910390fd5b50505050565b610f706121d0565b815f610f7b82611836565b11610fbb576040517f08c379a0000000000000000000000000000000000000000000000000000000008152600401610fb290614430565b60405180910390fd5b5f60045f8573ffffffffffffffffffffffffffffffffffffffff1673ffffffffffffffffffffffffffffffffffffffff1681526020019081526020015f205490508260035f8381526020019081526020015f205f6101000a81548160ff0219169083600281111561102f5761102e613d44565b5b02179055507f08eafebe827fa02f431bc032ab11d7b5183e223256b1fc8550b07277b87212c78184604051611065929190614545565b60405180910390a150505050565b60605f60045f8473ffffffffffffffffffffffffffffffffffffffff1673ffffffffffffffffffffffffffffffffffffffff1681526020019081526020015f2054905060025f8281526020019081526020015f2080546110d2906140d3565b80601f01602080910402602001604051908101604052809291908181526020018280546110fe906140d3565b80156111495780601f1061112057610100808354040283529160200191611149565b820191905f5260205f20905b81548152906001019060200180831161112c57829003601f168201915b5050505050915050919050565b60605f60015467ffffffffffffffff8111156111755761117461381e565b5b6040519080825280602002602001820160405280156111ae57816020015b61119b613568565b8152602001906001900390816111935790505b5090505f600190505b60015481116112cc5760075f8281526020019081526020015f206040518060600160405290815f82015481526020016001820180546111f5906140d3565b80601f0160208091040260200160405190810160405280929190818152602001828054611221906140d3565b801561126c5780601f106112435761010080835404028352916020019161126c565b820191905f5260205f20905b81548152906001019060200180831161124f57829003601f168201915b50505050508152602001600282015f9054906101000a900460ff1615151515815250508260018361129d919061447b565b815181106112ae576112ad61444e565b5b602002602001018190525080806112c490614130565b9150506111b7565b508091505090565b6112ee83838360405180602001604052805f815250611d34565b505050565b6112fb6124f6565b611304826125dc565b61130e82826125e7565b5050565b5f61131b612705565b7f360894a13ba1a3210667c828492db98dca3e2076cc3735a920a3ca505d382bbc5f1b905090565b5f60035f8381526020019081526020015f205f9054906101000a900460ff169050919050565b5f6113726121d0565b8160075f8281526020019081526020015f206002015f9054906101000a900460ff166113d3576040517f08c379a00000000000000000000000000000000000000000000000000000000081526004016113ca906145b6565b60405180910390fd5b5f60075f8581526020019081526020015f2090505f816002015f6101000a81548160ff021916908315150217905550806002015f9054906101000a900460ff1692505050919050565b6114246121d0565b825f61142f82611836565b1461146f576040517f08c379a00000000000000000000000000000000000000000000000000000000081526004016114669061461e565b60405180910390fd5b8160075f8281526020019081526020015f206002015f9054906101000a900460ff166114d0576040517f08c379a00000000000000000000000000000000000000000000000000000000081526004016114c7906145b6565b60405180910390fd5b5f5f8154809291906114e190614130565b91905055506114f1855f5461278c565b8360025f5f5481526020019081526020015f2090816115109190614317565b505f60035f5f5481526020019081526020015f205f6101000a81548160ff0219169083600281111561154557611544613d44565b5b02179055505f5460045f8773ffffffffffffffffffffffffffffffffffffffff1673ffffffffffffffffffffffffffffffffffffffff1681526020019081526020015f20819055508260055f5f5481526020019081526020015f20819055508260065f8773ffffffffffffffffffffffffffffffffffffffff1673ffffffffffffffffffffffffffffffffffffffff1681526020019081526020015f208190555060085f8481526020019081526020015f2085908060018154018082558091505060019003905f5260205f20015f9091909190916101000a81548173ffffffffffffffffffffffffffffffffffffffff021916908373ffffffffffffffffffffffffffffffffffffffff1602179055508473ffffffffffffffffffffffffffffffffffffffff167f01a0b0ca18b864a9006e3023316192811dae68d129ab0a3269777b5bbc3eff0b5f548560405161169e92919061463c565b60405180910390a25050505050565b5f5f6116b884611836565b11801561170157508160065f8573ffffffffffffffffffffffffffffffffffffffff1673ffffffffffffffffffffffffffffffffffffffff1681526020019081526020015f2054145b905092915050565b5f611713826120ea565b9050919050565b5f5f60045f8473ffffffffffffffffffffffffffffffffffffffff1673ffffffffffffffffffffffffffffffffffffffff1681526020019081526020015f2054905060035f8281526020019081526020015f205f9054906101000a900460ff16915050919050565b5f61178b6121d0565b8160075f8281526020019081526020015f206002015f9054906101000a900460ff166117ec576040517f08c379a00000000000000000000000000000000000000000000000000000000081526004016117e3906145b6565b60405180910390fd5b5f60075f8581526020019081526020015f2090506001816002015f6101000a81548160ff021916908315150217905550806002015f9054906101000a900460ff1692505050919050565b5f5f6118406120c3565b90505f73ffffffffffffffffffffffffffffffffffffffff168373ffffffffffffffffffffffffffffffffffffffff16036118b2575f6040517f89c62b640000000000000000000000000000000000000000000000000000000081526004016118a99190613795565b60405180910390fd5b806003015f8473ffffffffffffffffffffffffffffffffffffffff1673ffffffffffffffffffffffffffffffffffffffff1681526020019081526020015f2054915050919050565b6119026121d0565b61190b5f61287f565b565b5f611916612950565b90505f815f0160089054906101000a900460ff161590505f825f015f9054906101000a900467ffffffffffffffff1690505f5f8267ffffffffffffffff1614801561195e5750825b90505f60018367ffffffffffffffff1614801561199157505f3073ffffffffffffffffffffffffffffffffffffffff163b145b90508115801561199f575080155b156119d6576040517ff92ee8a900000000000000000000000000000000000000000000000000000000815260040160405180910390fd5b6001855f015f6101000a81548167ffffffffffffffff021916908367ffffffffffffffff1602179055508315611a23576001855f0160086101000a81548160ff0219169083151502179055505b611a976040518060400160405280601181526020017f4775696c64426f617264204d656d6265720000000000000000000000000000008152506040518060400160405280600581526020017f4755494c44000000000000000000000000000000000000000000000000000000815250612963565b611aa033612979565b8315611afa575f855f0160086101000a81548160ff0219169083151502179055507fc7f505b2f371ae2175ee4913f4499e1f2633a7b5936321eed1cdaeb6115181d26001604051611af191906146af565b60405180910390a15b5050505050565b5f5f611b0b61298d565b9050805f015f9054906101000a900473ffffffffffffffffffffffffffffffffffffffff1691505090565b60605f611b416120c3565b9050806001018054611b52906140d3565b80601f0160208091040260200160405190810160405280929190818152602001828054611b7e906140d3565b8015611bc95780601f10611ba057610100808354040283529160200191611bc9565b820191905f5260205f20905b815481529060010190602001808311611bac57829003601f168201915b505050505091505090565b611be6611bdf6121b7565b83836129b4565b5050565b5f5f611bf583611836565b119050919050565b6040518060400160405280600581526020017f352e302e3000000000000000000000000000000000000000000000000000000081525081565b60608160075f8281526020019081526020015f206002015f9054906101000a900460ff16611c99576040517f08c379a0000000000000000000000000000000000000000000000000000000008152600401611c90906145b6565b60405180910390fd5b60085f8481526020019081526020015f20805480602002602001604051908101604052809291908181526020018280548015611d2757602002820191905f5260205f20905b815f9054906101000a900473ffffffffffffffffffffffffffffffffffffffff1673ffffffffffffffffffffffffffffffffffffffff1681526020019060010190808311611cde575b5050505050915050919050565b611d3f848484610e69565b611d53611d4a6121b7565b85858585612b9b565b50505050565b606060025f8381526020019081526020015f208054611d77906140d3565b80601f0160208091040260200160405190810160405280929190818152602001828054611da3906140d3565b8015611dee5780601f10611dc557610100808354040283529160200191611dee565b820191905f5260205f20905b815481529060010190602001808311611dd157829003601f168201915b50505050509050919050565b611e02613568565b8160075f8281526020019081526020015f206002015f9054906101000a900460ff16611e63576040517f08c379a0000000000000000000000000000000000000000000000000000000008152600401611e5a906145b6565b60405180910390fd5b60075f8481526020019081526020015f206040518060600160405290815f8201548152602001600182018054611e98906140d3565b80601f0160208091040260200160405190810160405280929190818152602001828054611ec4906140d3565b8015611f0f5780601f10611ee657610100808354040283529160200191611f0f565b820191905f5260205f20905b815481529060010190602001808311611ef257829003601f168201915b50505050508152602001600282015f9054906101000a900460ff161515151581525050915050919050565b5f5f611f446120c3565b9050806005015f8573ffffffffffffffffffffffffffffffffffffffff1673ffffffffffffffffffffffffffffffffffffffff1681526020019081526020015f205f8473ffffffffffffffffffffffffffffffffffffffff1673ffffffffffffffffffffffffffffffffffffffff1681526020019081526020015f205f9054906101000a900460ff1691505092915050565b611fde6121d0565b5f73ffffffffffffffffffffffffffffffffffffffff168173ffffffffffffffffffffffffffffffffffffffff160361204e575f6040517f1e4fbdf70000000000000000000000000000000000000000000000000000000081526004016120459190613795565b60405180910390fd5b6120578161287f565b50565b5f7f01ffc9a7000000000000000000000000000000000000000000000000000000007bffffffffffffffffffffffffffffffffffffffffffffffffffffffff1916827bffffffffffffffffffffffffffffffffffffffffffffffffffffffff1916149050919050565b5f7f80bb2b638cc20bc4d0a60d66940f3ab4a00c1d7b313497ca82fb0b4ab0079300905090565b5f5f6120f583612d47565b90505f73ffffffffffffffffffffffffffffffffffffffff168173ffffffffffffffffffffffffffffffffffffffff160361216757826040517f7e27328900000000000000000000000000000000000000000000000000000000815260040161215e9190613998565b60405180910390fd5b80915050919050565b5f5f61217a6120c3565b9050806004015f8481526020019081526020015f205f9054906101000a900473ffffffffffffffffffffffffffffffffffffffff16915050919050565b5f33905090565b6121cb8383836001612d8e565b505050565b6121d86121b7565b73ffffffffffffffffffffffffffffffffffffffff166121f6611b01565b73ffffffffffffffffffffffffffffffffffffffff1614612255576122196121b7565b6040517f118cdaa700000000000000000000000000000000000000000000000000000000815260040161224c9190613795565b60405180910390fd5b565b5f6122635f835f6122d9565b90505f73ffffffffffffffffffffffffffffffffffffffff168173ffffffffffffffffffffffffffffffffffffffff16036122d557816040517f7e2732890000000000000000000000000000000000000000000000000000000081526004016122cc9190613998565b60405180910390fd5b5050565b5f5f6122e36120c3565b90505f6122ef85612d47565b90505f73ffffffffffffffffffffffffffffffffffffffff168473ffffffffffffffffffffffffffffffffffffffff16146123305761232f818587612f5b565b5b5f73ffffffffffffffffffffffffffffffffffffffff168173ffffffffffffffffffffffffffffffffffffffff16146123bd5761236f5f865f5f612d8e565b6001826003015f8373ffffffffffffffffffffffffffffffffffffffff1673ffffffffffffffffffffffffffffffffffffffff1681526020019081526020015f205f82825403925050819055505b5f73ffffffffffffffffffffffffffffffffffffffff168673ffffffffffffffffffffffffffffffffffffffff161461243e576001826003015f8873ffffffffffffffffffffffffffffffffffffffff1673ffffffffffffffffffffffffffffffffffffffff1681526020019081526020015f205f82825401925050819055505b85826002015f8781526020019081526020015f205f6101000a81548173ffffffffffffffffffffffffffffffffffffffff021916908373ffffffffffffffffffffffffffffffffffffffff160217905550848673ffffffffffffffffffffffffffffffffffffffff168273ffffffffffffffffffffffffffffffffffffffff167fddf252ad1be2c89b69c2b068fc378daa952ba7f163c4a11628f55a4df523b3ef60405160405180910390a480925050509392505050565b7f000000000000000000000000000000000000000000000000000000000000000073ffffffffffffffffffffffffffffffffffffffff163073ffffffffffffffffffffffffffffffffffffffff1614806125a357507f000000000000000000000000000000000000000000000000000000000000000073ffffffffffffffffffffffffffffffffffffffff1661258a61301e565b73ffffffffffffffffffffffffffffffffffffffff1614155b156125da576040517fe07c8dba00000000000000000000000000000000000000000000000000000000815260040160405180910390fd5b565b6125e46121d0565b50565b8173ffffffffffffffffffffffffffffffffffffffff166352d1902d6040518163ffffffff1660e01b8152600401602060405180830381865afa92505050801561264f57506040513d601f19601f8201168201806040525081019061264c91906146f2565b60015b61269057816040517f4c9c8ce30000000000000000000000000000000000000000000000000000000081526004016126879190613795565b60405180910390fd5b7f360894a13ba1a3210667c828492db98dca3e2076cc3735a920a3ca505d382bbc5f1b81146126f657806040517faa1d49a40000000000000000000000000000000000000000000000000000000081526004016126ed9190613d2b565b60405180910390fd5b6127008383613071565b505050565b7f000000000000000000000000000000000000000000000000000000000000000073ffffffffffffffffffffffffffffffffffffffff163073ffffffffffffffffffffffffffffffffffffffff161461278a576040517fe07c8dba00000000000000000000000000000000000000000000000000000000815260040160405180910390fd5b565b5f73ffffffffffffffffffffffffffffffffffffffff168273ffffffffffffffffffffffffffffffffffffffff16036127fc575f6040517f64a0ae920000000000000000000000000000000000000000000000000000000081526004016127f39190613795565b60405180910390fd5b5f61280883835f6122d9565b90505f73ffffffffffffffffffffffffffffffffffffffff168173ffffffffffffffffffffffffffffffffffffffff161461287a575f6040517f73c6ac6e0000000000000000000000000000000000000000000000000000000081526004016128719190613795565b60405180910390fd5b505050565b5f61288861298d565b90505f815f015f9054906101000a900473ffffffffffffffffffffffffffffffffffffffff16905082825f015f6101000a81548173ffffffffffffffffffffffffffffffffffffffff021916908373ffffffffffffffffffffffffffffffffffffffff1602179055508273ffffffffffffffffffffffffffffffffffffffff168173ffffffffffffffffffffffffffffffffffffffff167f8be0079c531659141344cd1fd0a4f28419497f9722a3daafe3b4186f6b6457e060405160405180910390a3505050565b5f5f61295a6130e3565b90508091505090565b61296b61310c565b612975828261314c565b5050565b61298161310c565b61298a81613187565b50565b5f7f9016d09d72d40fdae2fd8ceac6b6234c7706214fd39c1cd1e609a0528c199300905090565b5f6129bd6120c3565b90505f73ffffffffffffffffffffffffffffffffffffffff168473ffffffffffffffffffffffffffffffffffffffff1603612a2f575f6040517fa9fbf51f000000000000000000000000000000000000000000000000000000008152600401612a269190613795565b60405180910390fd5b5f73ffffffffffffffffffffffffffffffffffffffff168373ffffffffffffffffffffffffffffffffffffffff1603612a9f57826040517f5b08ba18000000000000000000000000000000000000000000000000000000008152600401612a969190613795565b60405180910390fd5b81816005015f8673ffffffffffffffffffffffffffffffffffffffff1673ffffffffffffffffffffffffffffffffffffffff1681526020019081526020015f205f8573ffffffffffffffffffffffffffffffffffffffff1673ffffffffffffffffffffffffffffffffffffffff1681526020019081526020015f205f6101000a81548160ff0219169083151502179055508273ffffffffffffffffffffffffffffffffffffffff168473ffffffffffffffffffffffffffffffffffffffff167f17307eab39ab6107e8899845ad3d59bd9653f200f220920489ca2b5937696c3184604051612b8d919061364f565b60405180910390a350505050565b5f8373ffffffffffffffffffffffffffffffffffffffff163b1115612d40578273ffffffffffffffffffffffffffffffffffffffff1663150b7a02868685856040518563ffffffff1660e01b8152600401612bf9949392919061476f565b6020604051808303815f875af1925050508015612c3457506040513d601f19601f82011682018060405250810190612c3191906147cd565b60015b612cb5573d805f8114612c62576040519150601f19603f3d011682016040523d82523d5f602084013e612c67565b606091505b505f815103612cad57836040517f64a0ae92000000000000000000000000000000000000000000000000000000008152600401612ca49190613795565b60405180910390fd5b805160208201fd5b63150b7a0260e01b7bffffffffffffffffffffffffffffffffffffffffffffffffffffffff1916817bffffffffffffffffffffffffffffffffffffffffffffffffffffffff191614612d3e57836040517f64a0ae92000000000000000000000000000000000000000000000000000000008152600401612d359190613795565b60405180910390fd5b505b5050505050565b5f5f612d516120c3565b9050806002015f8481526020019081526020015f205f9054906101000a900473ffffffffffffffffffffffffffffffffffffffff16915050919050565b5f612d976120c3565b90508180612dd157505f73ffffffffffffffffffffffffffffffffffffffff168373ffffffffffffffffffffffffffffffffffffffff1614155b15612f03575f612de0856120ea565b90505f73ffffffffffffffffffffffffffffffffffffffff168473ffffffffffffffffffffffffffffffffffffffff1614158015612e4a57508373ffffffffffffffffffffffffffffffffffffffff168173ffffffffffffffffffffffffffffffffffffffff1614155b8015612e5d5750612e5b8185611f3a565b155b15612e9f57836040517fa9fbf51f000000000000000000000000000000000000000000000000000000008152600401612e969190613795565b60405180910390fd5b8215612f0157848673ffffffffffffffffffffffffffffffffffffffff168273ffffffffffffffffffffffffffffffffffffffff167f8c5be1e5ebec7d5bd14f71427d1e84f3dd0314c0f7b2291e5b200ac8c7c3b92560405160405180910390a45b505b84816004015f8681526020019081526020015f205f6101000a81548173ffffffffffffffffffffffffffffffffffffffff021916908373ffffffffffffffffffffffffffffffffffffffff1602179055505050505050565b612f6683838361320b565b613019575f73ffffffffffffffffffffffffffffffffffffffff168373ffffffffffffffffffffffffffffffffffffffff1603612fda57806040517f7e273289000000000000000000000000000000000000000000000000000000008152600401612fd19190613998565b60405180910390fd5b81816040517f177e802f0000000000000000000000000000000000000000000000000000000081526004016130109291906147f8565b60405180910390fd5b505050565b5f61304a7f360894a13ba1a3210667c828492db98dca3e2076cc3735a920a3ca505d382bbc5f1b6132cb565b5f015f9054906101000a900473ffffffffffffffffffffffffffffffffffffffff16905090565b61307a826132d4565b8173ffffffffffffffffffffffffffffffffffffffff167fbc7cd75a20ee27fd9adebab32041f755214dbc6bffa90cc0225b39da2e5c2d3b60405160405180910390a25f815111156130d6576130d0828261339d565b506130df565b6130de61348e565b5b5050565b5f7ff0c57e16840df040f15088dc2f81fe391c3923bec73e23a9662efc9c229c6a005f1b905090565b6131146134ca565b61314a576040517fd7e6bcf800000000000000000000000000000000000000000000000000000000815260040160405180910390fd5b565b61315461310c565b5f61315d6120c3565b905082815f01908161316f9190614317565b50818160010190816131819190614317565b50505050565b61318f61310c565b5f73ffffffffffffffffffffffffffffffffffffffff168173ffffffffffffffffffffffffffffffffffffffff16036131ff575f6040517f1e4fbdf70000000000000000000000000000000000000000000000000000000081526004016131f69190613795565b60405180910390fd5b6132088161287f565b50565b5f5f73ffffffffffffffffffffffffffffffffffffffff168373ffffffffffffffffffffffffffffffffffffffff16141580156132c257508273ffffffffffffffffffffffffffffffffffffffff168473ffffffffffffffffffffffffffffffffffffffff16148061328357506132828484611f3a565b5b806132c157508273ffffffffffffffffffffffffffffffffffffffff166132a983612170565b73ffffffffffffffffffffffffffffffffffffffff16145b5b90509392505050565b5f819050919050565b5f8173ffffffffffffffffffffffffffffffffffffffff163b0361332f57806040517f4c9c8ce30000000000000000000000000000000000000000000000000000000081526004016133269190613795565b60405180910390fd5b8061335b7f360894a13ba1a3210667c828492db98dca3e2076cc3735a920a3ca505d382bbc5f1b6132cb565b5f015f6101000a81548173ffffffffffffffffffffffffffffffffffffffff021916908373ffffffffffffffffffffffffffffffffffffffff16021790555050565b60605f6133aa84846134e8565b90508080156133e057505f6133bd6134fc565b11806133df57505f8473ffffffffffffffffffffffffffffffffffffffff163b115b5b156133f5576133ed613503565b915050613488565b801561343857836040517f9996b31500000000000000000000000000000000000000000000000000000000815260040161342f9190613795565b60405180910390fd5b5f6134416134fc565b11156134545761344f613520565b613486565b6040517fd6bda27500000000000000000000000000000000000000000000000000000000815260040160405180910390fd5b505b92915050565b5f3411156134c8576040517fb398979f00000000000000000000000000000000000000000000000000000000815260040160405180910390fd5b565b5f6134d3612950565b5f0160089054906101000a900460ff16905090565b5f5f5f835160208501865af4905092915050565b5f3d905090565b606060405190503d81523d5f602083013e3d602001810160405290565b6040513d5f823e3d81fd5b508054613537906140d3565b5f825580601f106135485750613565565b601f0160209004905f5260205f20908101906135649190613589565b5b50565b60405180606001604052805f8152602001606081526020015f151581525090565b5b808211156135a0575f815f90555060010161358a565b5090565b5f604051905090565b5f5ffd5b5f5ffd5b5f7fffffffff0000000000000000000000000000000000000000000000000000000082169050919050565b6135e9816135b5565b81146135f3575f5ffd5b50565b5f81359050613604816135e0565b92915050565b5f6020828403121561361f5761361e6135ad565b5b5f61362c848285016135f6565b91505092915050565b5f8115159050919050565b61364981613635565b82525050565b5f6020820190506136625f830184613640565b92915050565b5f81519050919050565b5f82825260208201905092915050565b8281835e5f83830152505050565b5f601f19601f8301169050919050565b5f6136aa82613668565b6136b48185613672565b93506136c4818560208601613682565b6136cd81613690565b840191505092915050565b5f6020820190508181035f8301526136f081846136a0565b905092915050565b5f819050919050565b61370a816136f8565b8114613714575f5ffd5b50565b5f8135905061372581613701565b92915050565b5f602082840312156137405761373f6135ad565b5b5f61374d84828501613717565b91505092915050565b5f73ffffffffffffffffffffffffffffffffffffffff82169050919050565b5f61377f82613756565b9050919050565b61378f81613775565b82525050565b5f6020820190506137a85f830184613786565b92915050565b6137b781613775565b81146137c1575f5ffd5b50565b5f813590506137d2816137ae565b92915050565b5f5f604083850312156137ee576137ed6135ad565b5b5f6137fb858286016137c4565b925050602061380c85828601613717565b9150509250929050565b5f5ffd5b5f5ffd5b7f4e487b71000000000000000000000000000000000000000000000000000000005f52604160045260245ffd5b61385482613690565b810181811067ffffffffffffffff821117156138735761387261381e565b5b80604052505050565b5f6138856135a4565b9050613891828261384b565b919050565b5f67ffffffffffffffff8211156138b0576138af61381e565b5b6138b982613690565b9050602081019050919050565b828183375f83830152505050565b5f6138e66138e184613896565b61387c565b9050828152602081018484840111156139025761390161381a565b5b61390d8482856138c6565b509392505050565b5f82601f83011261392957613928613816565b5b81356139398482602086016138d4565b91505092915050565b5f60208284031215613957576139566135ad565b5b5f82013567ffffffffffffffff811115613974576139736135b1565b5b61398084828501613915565b91505092915050565b613992816136f8565b82525050565b5f6020820190506139ab5f830184613989565b92915050565b5f602082840312156139c6576139c56135ad565b5b5f6139d3848285016137c4565b91505092915050565b5f5f5f606084860312156139f3576139f26135ad565b5b5f613a00868287016137c4565b9350506020613a11868287016137c4565b9250506040613a2286828701613717565b9150509250925092565b60038110613a38575f5ffd5b50565b5f81359050613a4981613a2c565b92915050565b5f5f60408385031215613a6557613a646135ad565b5b5f613a72858286016137c4565b9250506020613a8385828601613a3b565b9150509250929050565b5f81519050919050565b5f82825260208201905092915050565b5f819050602082019050919050565b613abf816136f8565b82525050565b5f82825260208201905092915050565b5f613adf82613668565b613ae98185613ac5565b9350613af9818560208601613682565b613b0281613690565b840191505092915050565b613b1681613635565b82525050565b5f606083015f830151613b315f860182613ab6565b5060208301518482036020860152613b498282613ad5565b9150506040830151613b5e6040860182613b0d565b508091505092915050565b5f613b748383613b1c565b905092915050565b5f602082019050919050565b5f613b9282613a8d565b613b9c8185613a97565b935083602082028501613bae85613aa7565b805f5b85811015613be95784840389528151613bca8582613b69565b9450613bd583613b7c565b925060208a01995050600181019050613bb1565b50829750879550505050505092915050565b5f6020820190508181035f830152613c138184613b88565b905092915050565b5f67ffffffffffffffff821115613c3557613c3461381e565b5b613c3e82613690565b9050602081019050919050565b5f613c5d613c5884613c1b565b61387c565b905082815260208101848484011115613c7957613c7861381a565b5b613c848482856138c6565b509392505050565b5f82601f830112613ca057613c9f613816565b5b8135613cb0848260208601613c4b565b91505092915050565b5f5f60408385031215613ccf57613cce6135ad565b5b5f613cdc858286016137c4565b925050602083013567ffffffffffffffff811115613cfd57613cfc6135b1565b5b613d0985828601613c8c565b9150509250929050565b5f819050919050565b613d2581613d13565b82525050565b5f602082019050613d3e5f830184613d1c565b92915050565b7f4e487b71000000000000000000000000000000000000000000000000000000005f52602160045260245ffd5b60038110613d8257613d81613d44565b5b50565b5f819050613d9282613d71565b919050565b5f613da182613d85565b9050919050565b613db181613d97565b82525050565b5f602082019050613dca5f830184613da8565b92915050565b5f5f5f60608486031215613de757613de66135ad565b5b5f613df4868287016137c4565b935050602084013567ffffffffffffffff811115613e1557613e146135b1565b5b613e2186828701613915565b9250506040613e3286828701613717565b9150509250925092565b613e4581613635565b8114613e4f575f5ffd5b50565b5f81359050613e6081613e3c565b92915050565b5f5f60408385031215613e7c57613e7b6135ad565b5b5f613e89858286016137c4565b9250506020613e9a85828601613e52565b9150509250929050565b5f81519050919050565b5f82825260208201905092915050565b5f819050602082019050919050565b613ed681613775565b82525050565b5f613ee78383613ecd565b60208301905092915050565b5f602082019050919050565b5f613f0982613ea4565b613f138185613eae565b9350613f1e83613ebe565b805f5b83811015613f4e578151613f358882613edc565b9750613f4083613ef3565b925050600181019050613f21565b5085935050505092915050565b5f6020820190508181035f830152613f738184613eff565b905092915050565b5f5f5f5f60808587031215613f9357613f926135ad565b5b5f613fa0878288016137c4565b9450506020613fb1878288016137c4565b9350506040613fc287828801613717565b925050606085013567ffffffffffffffff811115613fe357613fe26135b1565b5b613fef87828801613c8c565b91505092959194509250565b5f606083015f8301516140105f860182613ab6565b50602083015184820360208601526140288282613ad5565b915050604083015161403d6040860182613b0d565b508091505092915050565b5f6020820190508181035f8301526140608184613ffb565b905092915050565b5f5f6040838503121561407e5761407d6135ad565b5b5f61408b858286016137c4565b925050602061409c858286016137c4565b9150509250929050565b7f4e487b71000000000000000000000000000000000000000000000000000000005f52602260045260245ffd5b5f60028204905060018216806140ea57607f821691505b6020821081036140fd576140fc6140a6565b5b50919050565b7f4e487b71000000000000000000000000000000000000000000000000000000005f52601160045260245ffd5b5f61413a826136f8565b91507fffffffffffffffffffffffffffffffffffffffffffffffffffffffffffffffff820361416c5761416b614103565b5b600182019050919050565b5f819050815f5260205f209050919050565b5f6020601f8301049050919050565b5f82821b905092915050565b5f600883026141d37fffffffffffffffffffffffffffffffffffffffffffffffffffffffffffffffff82614198565b6141dd8683614198565b95508019841693508086168417925050509392505050565b5f819050919050565b5f61421861421361420e846136f8565b6141f5565b6136f8565b9050919050565b5f819050919050565b614231836141fe565b61424561423d8261421f565b8484546141a4565b825550505050565b5f5f905090565b61425c61424d565b614267818484614228565b505050565b5b8181101561428a5761427f5f82614254565b60018101905061426d565b5050565b601f8211156142cf576142a081614177565b6142a984614189565b810160208510156142b8578190505b6142cc6142c485614189565b83018261426c565b50505b505050565b5f82821c905092915050565b5f6142ef5f19846008026142d4565b1980831691505092915050565b5f61430783836142e0565b9150826002028217905092915050565b61432082613668565b67ffffffffffffffff8111156143395761433861381e565b5b61434382546140d3565b61434e82828561428e565b5f60209050601f83116001811461437f575f841561436d578287015190505b61437785826142fc565b8655506143de565b601f19841661438d86614177565b5f5b828110156143b45784890151825560018201915060208501945060208101905061438f565b868310156143d157848901516143cd601f8916826142e0565b8355505b6001600288020188555050505b505050505050565b7f4775696c644e46543a206e6f742061206d656d626572000000000000000000005f82015250565b5f61441a601683613672565b9150614425826143e6565b602082019050919050565b5f6020820190508181035f8301526144478161440e565b9050919050565b7f4e487b71000000000000000000000000000000000000000000000000000000005f52603260045260245ffd5b5f614485826136f8565b9150614490836136f8565b92508282039050818111156144a8576144a7614103565b5b92915050565b7f4e487b71000000000000000000000000000000000000000000000000000000005f52603160045260245ffd5b5f6060820190506144ee5f830186613786565b6144fb6020830185613989565b6145086040830184613989565b949350505050565b5f6060820190506145235f830186613786565b6145306020830185613989565b61453d6040830184613786565b949350505050565b5f6040820190506145585f830185613989565b6145656020830184613da8565b9392505050565b7f4775696c644e46543a206775696c6420646f6573206e6f7420657869737400005f82015250565b5f6145a0601e83613672565b91506145ab8261456c565b602082019050919050565b5f6020820190508181035f8301526145cd81614594565b9050919050565b7f4775696c644e46543a20616c72656164792061206d656d6265720000000000005f82015250565b5f614608601a83613672565b9150614613826145d4565b602082019050919050565b5f6020820190508181035f830152614635816145fc565b9050919050565b5f60408201905061464f5f830185613989565b61465c6020830184613989565b9392505050565b5f819050919050565b5f67ffffffffffffffff82169050919050565b5f61469961469461468f84614663565b6141f5565b61466c565b9050919050565b6146a98161467f565b82525050565b5f6020820190506146c25f8301846146a0565b92915050565b6146d181613d13565b81146146db575f5ffd5b50565b5f815190506146ec816146c8565b92915050565b5f60208284031215614707576147066135ad565b5b5f614714848285016146de565b91505092915050565b5f81519050919050565b5f82825260208201905092915050565b5f6147418261471d565b61474b8185614727565b935061475b818560208601613682565b61476481613690565b840191505092915050565b5f6080820190506147825f830187613786565b61478f6020830186613786565b61479c6040830185613989565b81810360608301526147ae8184614737565b905095945050505050565b5f815190506147c7816135e0565b92915050565b5f602082840312156147e2576147e16135ad565b5b5f6147ef848285016147b9565b91505092915050565b5f60408201905061480b5f830185613786565b6148186020830184613989565b939250505056fea2646970667358221220e48377c6fc5f2613d15c86fc888eb152767fec3ff50f7c2245e66eb56c2bea9f64736f6c634300081c0033",
  "linkReferences": {},
  "deployedLinkReferences": {}
}