{
  "_format": "hh-sol-artifact-1",
  "contractName": "Guildboard",
  "sourceName": "contracts/Guilbboard.sol",
  "abi": [
    {
      "inputs": [],
      "stateMutability": "nonpayable",
      "type": "constructor"
    },
    {
      "inputs": [
        {
          "internalType": "address",
          "name": "target",
          "type": "address"
        }
      ],
      "name": "AddressEmptyCode",
      "type": "error"
    },
    {
      "inputs": [
        {
          "internalType": "address",
          "name": "implementation",
          "type": "address"
        }
      ],
      "name": "ERC1967InvalidImplementation",
      "type": "error"
    },
    {
      "inputs": [],
      "name": "ERC1967NonPayable",
      "type": "error"
    },
    {
      "inputs": [],
      "name": "EnforcedPause",
      "type": "error"
    },
    {
      "inputs": [],
      "name": "ExpectedPause",
      "type": "error"
    },
    {
      "inputs": [],
      "name": "FailedCall",
      "type": "error"
    },
    {
      "inputs": [],
      "name": "InvalidInitialization",
      "type": "error"
    },
    {
      "inputs": [],
      "name": "NotInitializing",
      "type": "error"
    },
    {
      "inputs": [
        {
          "internalType": "address",
          "name": "owner",
          "type": "address"
        }
      ],
      "name": "OwnableInvalidOwner",
      "type": "error"
    },
    {
      "inputs": [
        {
          "internalType": "address",
          "name": "account",
          "type": "address"
        }
      ],
      "name": "OwnableUnauthorizedAccount",
      "type": "error"
    },
    {
      "inputs": [],
      "name": "ReentrancyGuardReentrantCall",
      "type": "error"
    },
    {
      "inputs": [],
      "name": "UUPSUnauthorizedCallContext",
      "type": "error"
    },
    {
      "inputs": [
        {
          "internalType": "bytes32",
          "name": "slot",
          "type": "bytes32"
        }
      ],
      "name": "UUPSUnsupportedProxiableUUID",
      "type": "error"
    },
    {
      "anonymous": false,
      "inputs": [
        {
          "indexed": false,
          "internalType": "uint64",
          "name": "version",
          "type": "uint64"
        }
      ],
      "name": "Initialized",
      "type": "event"
    },
    {
      "anonymous": false,
      "inputs": [
        {
          "indexed": true,
          "internalType": "address",
          "name": "previousOwner",
          "type": "address"
        },
        {
          "indexed": true,
          "internalType": "address",
          "name": "newOwner",
          "type": "address"
        }
      ],
      "name": "OwnershipTransferred",
      "type": "event"
    },
    {
      "anonymous": false,
      "inputs": [
        {
          "indexed": false,
          "internalType": "address",
          "name": "account",
          "type": "address"
        }
      ],
      "name": "Paused",
      "type": "event"
    },
    {
      "anonymous": false,
      "inputs": [
        {
          "indexed": false,
          "internalType": "uint256",
          "name": "taskId",
          "type": "uint256"
        },
        {
          "indexed": false,
          "internalType": "uint256",
          "name": "guildId",
          "type": "uint256"
        }
      ],
      "name": "TaskAssigned",
      "type": "event"
    },
    {
      "anonymous": false,
      "inputs": [
        {
          "indexed": false,
          "internalType": "uint256",
          "name": "taskId",
          "type": "uint256"
        }
      ],
      "name": "TaskCreated",
      "type": "event"
    },
    {
      "anonymous": false,
      "inputs": [
        {
          "indexed": false,
          "internalType": "uint256",
          "name": "taskId",
          "type": "uint256"
        },
        {
          "indexed": false,
          "internalType": "uint256",
          "name": "amount",
          "type": "uint256"
        },
        {
          "indexed": false,
          "internalType": "uint256",
          "name": "guildId",
          "type": "uint256"
        }
      ],
      "name": "TaskDoneAndPaid",
      "type": "event"
    },
    {
      "anonymous": false,
      "inputs": [
        {
          "indexed": false,
          "internalType": "uint256",
          "name": "taskId",
          "type": "uint256"
        },
        {
          "indexed": false,
          "internalType": "enum Guildboard.TaskStatus",
          "name": "newStatus",
          "type": "uint8"
        }
      ],
      "name": "TaskStatusUpdated",
      "type": "event"
    },
    {
      "anonymous": false,
      "inputs": [
        {
          "indexed": false,
          "internalType": "address",
          "name": "account",
          "type": "address"
        }
      ],
      "name": "Unpaused",
      "type": "event"
    },
    {
      "anonymous": false,
      "inputs": [
        {
          "indexed": true,
          "internalType": "address",
          "name": "implementation",
          "type": "address"
        }
      ],
      "name": "Upgraded",
      "type": "event"
    },
    {
      "inputs": [
        {
          "internalType": "uint256",
          "name": "guildId",
          "type": "uint256"
        },
        {
          "internalType": "uint256",
          "name": "taskId",
          "type": "uint256"
        }
      ],
      "name": "AssignTaskToGuild",
      "outputs": [],
      "stateMutability": "nonpayable",
      "type": "function"
    },
    {
      "inputs": [],
      "name": "UPGRADE_INTERFACE_VERSION",
      "outputs": [
        {
          "internalType": "string",
          "name": "",
          "type": "string"
        }
      ],
      "stateMutability": "view",
      "type": "function"
    },
    {
      "inputs": [
        {
          "internalType": "uint256",
          "name": "",
          "type": "uint256"
        }
      ],
      "name": "_guildPayements",
      "outputs": [
        {
          "internalType": "uint256",
          "name": "",
          "type": "uint256"
        }
      ],
      "stateMutability": "view",
      "type": "function"
    },
    {
      "inputs": [
        {
          "internalType": "uint256",
          "name": "",
          "type": "uint256"
        },
        {
          "internalType": "uint256",
          "name": "",
          "type": "uint256"
        }
      ],
      "name": "_guildTasks",
      "outputs": [
        {
          "internalType": "uint256",
          "name": "",
          "type": "uint256"
        }
      ],
      "stateMutability": "view",
      "type": "function"
    },
    {
      "inputs": [
        {
          "internalType": "uint256",
          "name": "taskId",
          "type": "uint256"
        }
      ],
      "name": "closeAndPayTask",
      "outputs": [],
      "stateMutability": "nonpayable",
      "type": "function"
    },
    {
      "inputs": [
        {
          "internalType": "string",
          "name": "description",
          "type": "string"
        },
        {
          "internalType": "address payable",
          "name": "assigneeAddress",
          "type": "address"
        }
      ],
      "name": "createTask",
      "outputs": [],
      "stateMutability": "payable",
      "type": "function"
    },
    {
      "inputs": [],
      "name": "deposit",
      "outputs": [],
      "stateMutability": "payable",
      "type": "function"
    },
    {
      "inputs": [],
      "name": "disableShutdown",
      "outputs": [],
      "stateMutability": "nonpayable",
      "type": "function"
    },
    {
      "inputs": [],
      "name": "enableShutdown",
      "outputs": [],
      "stateMutability": "nonpayable",
      "type": "function"
    },
    {
      "inputs": [],
      "name": "getAllTasks",
      "outputs": [
        {
          "components": [
            {
              "internalType": "uint256",
              "name": "id",
              "type": "uint256"
            },
            {
              "internalType": "string",
              "name": "description",
              "type": "string"
            },
            {
              "internalType": "enum Guildboard.TaskStatus",
              "name": "status",
              "type": "uint8"
            },
            {
              "internalType": "address",
              "name": "poster",
              "type": "address"
            },
            {
              "internalType": "address payable",
              "name": "assignee",
              "type": "address"
            },
            {
              "internalType": "uint256",
              "name": "guildId",
              "type": "uint256"
            },
            {
              "internalType": "uint256",
              "name": "reward",
              "type": "uint256"
            },
            {
              "internalType": "bool",
              "name": "paid",
              "type": "bool"
            }
          ],
          "internalType": "struct Guildboard.Task[]",
          "name": "",
          "type": "tuple[]"
        }
      ],
      "stateMutability": "view",
      "type": "function"
    },
    {
      "inputs": [
        {
          "internalType": "uint256",
          "name": "guildId",
          "type": "uint256"
        }
      ],
      "name": "getGuildTasks",
      "outputs": [
        {
          "components": [
            {
              "internalType": "uint256",
              "name": "id",
              "type": "uint256"
            },
            {
              "internalType": "string",
              "name": "description",
              "type": "string"
            },
            {
              "internalType": "enum Guildboard.TaskStatus",
              "name": "status",
              "type": "uint8"
            },
            {
              "internalType": "address",
              "name": "poster",
              "type": "address"
            },
            {
              "internalType": "address payable",
              "name": "assignee",
              "type": "address"
            },
            {
              "internalType": "uint256",
              "name": "guildId",
              "type": "uint256"
            },
            {
              "internalType": "uint256",
              "name": "reward",
              "type": "uint256"
            },
            {
              "internalType": "bool",
              "name": "paid",
              "type": "bool"
            }
          ],
          "internalType": "struct Guildboard.Task[]",
          "name": "",
          "type": "tuple[]"
        }
      ],
      "stateMutability": "view",
      "type": "function"
    },
    {
      "inputs": [
        {
          "internalType": "uint256",
          "name": "taskId",
          "type": "uint256"
        }
      ],
      "name": "getTask",
      "outputs": [
        {
          "components": [
            {
              "internalType": "uint256",
              "name": "id",
              "type": "uint256"
            },
            {
              "internalType": "string",
              "name": "description",
              "type": "string"
            },
            {
              "internalType": "enum Guildboard.TaskStatus",
              "name": "status",
              "type": "uint8"
            },
            {
              "internalType": "address",
              "name": "poster",
              "type": "address"
            },
            {
              "internalType": "address payable",
              "name": "assignee",
              "type": "address"
            },
            {
              "internalType": "uint256",
              "name": "guildId",
              "type": "uint256"
            },
            {
              "internalType": "uint256",
              "name": "reward",
              "type": "uint256"
            },
            {
              "internalType": "bool",
              "name": "paid",
              "type": "bool"
            }
          ],
          "internalType": "struct Guildboard.Task",
          "name": "",
          "type": "tuple"
        }
      ],
      "stateMutability": "view",
      "type": "function"
    },
    {
      "inputs": [],
      "name": "guildNFT",
      "outputs": [
        {
          "internalType": "contract IGuildNFT",
          "name": "",
          "type": "address"
        }
      ],
      "stateMutability": "view",
      "type": "function"
    },
    {
      "inputs": [
        {
          "internalType": "address",
          "name": "_guildNFT",
          "type": "address"
        }
      ],
      "name": "initialize",
      "outputs": [],
      "stateMutability": "nonpayable",
      "type": "function"
    },
    {
      "inputs": [],
      "name": "owner",
      "outputs": [
        {
          "internalType": "address",
          "name": "",
          "type": "address"
        }
      ],
      "stateMutability": "view",
      "type": "function"
    },
    {
      "inputs": [],
      "name": "paused",
      "outputs": [
        {
          "internalType": "bool",
          "name": "",
          "type": "bool"
        }
      ],
      "stateMutability": "view",
      "type": "function"
    },
    {
      "inputs": [],
      "name": "proxiableUUID",
      "outputs": [
        {
          "internalType": "bytes32",
          "name": "",
          "type": "bytes32"
        }
      ],
      "stateMutability": "view",
      "type": "function"
    },
    {
      "inputs": [],
      "name": "renounceOwnership",
      "outputs": [],
      "stateMutability": "nonpayable",
      "type": "function"
    },
    {
      "inputs": [
        {
          "internalType": "address",
          "name": "newOwner",
          "type": "address"
        }
      ],
      "name": "transferOwnership",
      "outputs": [],
      "stateMutability": "nonpayable",
      "type": "function"
    },
    {
      "inputs": [
        {
          "internalType": "uint256",
          "name": "taskId",
          "type": "uint256"
        },
        {
          "internalType": "enum Guildboard.TaskStatus",
          "name": "newStatus",
          "type": "uint8"
        }
      ],
      "name": "updateTaskStatus",
      "outputs": [],
      "stateMutability": "nonpayable",
      "type": "function"
    },
    {
      "inputs": [
        {
          "internalType": "address",
          "name": "newImplementation",
          "type": "address"
        },
        {
          "internalType": "bytes",
          "name": "data",
          "type": "bytes"
        }
      ],
      "name": "upgradeToAndCall",
      "outputs": [],
      "stateMutability": "payable",
      "type": "function"
    }
  ],
  "bytecode": "0x60a06040523073ffffffffffffffffffffffffffffffffffffffff1660809073ffffffffffffffffffffffffffffffffffffffff16815250348015610042575f5ffd5b5061005161005660201b60201c565b6101d1565b5f61006561015460201b60201c565b9050805f0160089054906101000a900460ff16156100af576040517ff92ee8a900000000000000000000000000000000000000000000000000000000815260040160405180910390fd5b67ffffffffffffffff8016815f015f9054906101000a900467ffffffffffffffff1667ffffffffffffffff16146101515767ffffffffffffffff815f015f6101000a81548167ffffffffffffffff021916908367ffffffffffffffff1602179055507fc7f505b2f371ae2175ee4913f4499e1f2633a7b5936321eed1cdaeb6115181d267ffffffffffffffff60405161014891906101b8565b60405180910390a15b50565b5f5f61016461016d60201b60201c565b90508091505090565b5f7ff0c57e16840df040f15088dc2f81fe391c3923bec73e23a9662efc9c229c6a005f1b905090565b5f67ffffffffffffffff82169050919050565b6101b281610196565b82525050565b5f6020820190506101cb5f8301846101a9565b92915050565b6080516134a36101f75f395f81816117260152818161177b015261193501526134a35ff3fe608060405260043610610129575f3560e01c8063779900b4116100aa578063c45951191161006e578063c4595119146103a3578063c4d66de8146103cd578063d0e30db0146103f5578063df2565c9146103ff578063f2fde38b14610427578063feba37af1461044f57610129565b8063779900b4146102e75780638ca75644146103115780638da5cb5b14610327578063ab9b681114610351578063ad3cb1cc1461037957610129565b806352d1902d116100f157806352d1902d146102395780635c975abb146102635780635f8f83b51461028d578063715018a6146102b557806371a244b3146102cb57610129565b80630394d6861461012d5780631d65e77e14610169578063240931e7146101a5578063303b27e9146101e15780634f1ef2861461021d575b5f5ffd5b348015610138575f5ffd5b50610153600480360381019061014e91906122bd565b610465565b604051610160919061230a565b60405180910390f35b348015610174575f5ffd5b5061018f600480360381019061018a9190612323565b61048f565b60405161019c9190612566565b60405180910390f35b3480156101b0575f5ffd5b506101cb60048036038101906101c69190612323565b6106be565b6040516101d891906126ee565b60405180910390f35b3480156101ec575f5ffd5b5061020760048036038101906102029190612323565b61099f565b604051610214919061230a565b60405180910390f35b61023760048036038101906102329190612864565b6109b4565b005b348015610244575f5ffd5b5061024d6109d3565b60405161025a91906128d6565b60405180910390f35b34801561026e575f5ffd5b50610277610a04565b60405161028491906128fe565b60405180910390f35b348015610298575f5ffd5b506102b360048036038101906102ae9190612323565b610a26565b005b3480156102c0575f5ffd5b506102c9610cd8565b005b6102e560048036038101906102e091906129df565b610ceb565b005b3480156102f2575f5ffd5b506102fb610ee6565b60405161030891906126ee565b60405180910390f35b34801561031c575f5ffd5b5061032561115e565b005b348015610332575f5ffd5b5061033b611170565b6040516103489190612a48565b60405180910390f35b34801561035c575f5ffd5b5061037760048036038101906103729190612a84565b6111a5565b005b348015610384575f5ffd5b5061038d611289565b60405161039a9190612b0a565b60405180910390f35b3480156103ae575f5ffd5b506103b76112c2565b6040516103c49190612b85565b60405180910390f35b3480156103d8575f5ffd5b506103f360048036038101906103ee9190612b9e565b6112e7565b005b6103fd6114b0565b005b34801561040a575f5ffd5b50610425600480360381019061042091906122bd565b6114b2565b005b348015610432575f5ffd5b5061044d60048036038101906104489190612b9e565b61168e565b005b34801561045a575f5ffd5b50610463611712565b005b5f602052815f5260405f20818154811061047d575f80fd5b905f5260205f20015f91509150505481565b6104976121fb565b815f60025f8381526020019081526020015f205f0154036104ed576040517f08c379a00000000000000000000000000000000000000000000000000000000081526004016104e490612c13565b60405180910390fd5b60025f8481526020019081526020015f20604051806101000160405290815f820154815260200160018201805461052390612c5e565b80601f016020809104026020016040519081016040528092919081815260200182805461054f90612c5e565b801561059a5780601f106105715761010080835404028352916020019161059a565b820191905f5260205f20905b81548152906001019060200180831161057d57829003601f168201915b50505050508152602001600282015f9054906101000a900460ff1660048111156105c7576105c66123cd565b5b60048111156105d9576105d86123cd565b5b81526020016002820160019054906101000a900473ffffffffffffffffffffffffffffffffffffffff1673ffffffffffffffffffffffffffffffffffffffff1673ffffffffffffffffffffffffffffffffffffffff168152602001600382015f9054906101000a900473ffffffffffffffffffffffffffffffffffffffff1673ffffffffffffffffffffffffffffffffffffffff1673ffffffffffffffffffffffffffffffffffffffff1681526020016004820154815260200160058201548152602001600682015f9054906101000a900460ff161515151581525050915050919050565b60605f5f5f8481526020019081526020015f2080548060200260200160405190810160405280929190818152602001828054801561071957602002820191905f5260205f20905b815481526020019060010190808311610705575b505050505090505f815167ffffffffffffffff81111561073c5761073b612740565b5b60405190808252806020026020018201604052801561077557816020015b6107626121fb565b81526020019060019003908161075a5790505b5090505f5f90505b82518110156109945760025f84838151811061079c5761079b612c8e565b5b602002602001015181526020019081526020015f20604051806101000160405290815f82015481526020016001820180546107d690612c5e565b80601f016020809104026020016040519081016040528092919081815260200182805461080290612c5e565b801561084d5780601f106108245761010080835404028352916020019161084d565b820191905f5260205f20905b81548152906001019060200180831161083057829003601f168201915b50505050508152602001600282015f9054906101000a900460ff16600481111561087a576108796123cd565b5b600481111561088c5761088b6123cd565b5b81526020016002820160019054906101000a900473ffffffffffffffffffffffffffffffffffffffff1673ffffffffffffffffffffffffffffffffffffffff1673ffffffffffffffffffffffffffffffffffffffff168152602001600382015f9054906101000a900473ffffffffffffffffffffffffffffffffffffffff1673ffffffffffffffffffffffffffffffffffffffff1673ffffffffffffffffffffffffffffffffffffffff1681526020016004820154815260200160058201548152602001600682015f9054906101000a900460ff16151515158152505082828151811061097c5761097b612c8e565b5b6020026020010181905250808060010191505061077d565b508092505050919050565b6001602052805f5260405f205f915090505481565b6109bc611724565b6109c58261180a565b6109cf8282611815565b5050565b5f6109dc611933565b7f360894a13ba1a3210667c828492db98dca3e2076cc3735a920a3ca505d382bbc5f1b905090565b5f5f610a0e6119ba565b9050805f015f9054906101000a900460ff1691505090565b610a2e6119e1565b805f60025f8381526020019081526020015f205f015403610a84576040517f08c379a0000000000000000000000000000000000000000000000000000000008152600401610a7b90612c13565b60405180910390fd5b610a8c611a68565b610a94611a95565b5f60025f8481526020019081526020015f20905060036004811115610abc57610abb6123cd565b5b816002015f9054906101000a900460ff166004811115610adf57610ade6123cd565b5b14610b1f576040517f08c379a0000000000000000000000000000000000000000000000000000000008152600401610b1690612d05565b60405180910390fd5b806006015f9054906101000a900460ff1615610b70576040517f08c379a0000000000000000000000000000000000000000000000000000000008152600401610b6790612d6d565b60405180910390fd5b6001816006015f6101000a81548160ff0219169083151502179055506004816002015f6101000a81548160ff02191690836004811115610bb357610bb26123cd565b5b02179055505f816003015f9054906101000a900473ffffffffffffffffffffffffffffffffffffffff1673ffffffffffffffffffffffffffffffffffffffff168260050154604051610c0490612db8565b5f6040518083038185875af1925050503d805f8114610c3e576040519150601f19603f3d011682016040523d82523d5f602084013e610c43565b606091505b5050905080610c87576040517f08c379a0000000000000000000000000000000000000000000000000000000008152600401610c7e90612e16565b60405180910390fd5b7faf240e9f232aa2a00f7eaec425826e7a9a0263d2b2555e6e10f540a02800e92b8483600501548460040154604051610cc293929190612e34565b60405180910390a15050610cd4611ad6565b5050565b610ce06119e1565b610ce95f611afa565b565b610cf36119e1565b60035f815480929190610d0590612e96565b919050555060405180610100016040528060035481526020018381526020015f6004811115610d3757610d366123cd565b5b81526020013373ffffffffffffffffffffffffffffffffffffffff1681526020018273ffffffffffffffffffffffffffffffffffffffff1681526020015f81526020013481526020015f151581525060025f60035481526020019081526020015f205f820151815f01556020820151816001019081610db69190613074565b506040820151816002015f6101000a81548160ff02191690836004811115610de157610de06123cd565b5b021790555060608201518160020160016101000a81548173ffffffffffffffffffffffffffffffffffffffff021916908373ffffffffffffffffffffffffffffffffffffffff1602179055506080820151816003015f6101000a81548173ffffffffffffffffffffffffffffffffffffffff021916908373ffffffffffffffffffffffffffffffffffffffff16021790555060a0820151816004015560c0820151816005015560e0820151816006015f6101000a81548160ff0219169083151502179055509050507fba46948ae716559226cede7aac0175e8ddd11b7cb3ea0369c9f218ef908b87d5600354604051610eda919061230a565b60405180910390a15050565b60605f60035467ffffffffffffffff811115610f0557610f04612740565b5b604051908082528060200260200182016040528015610f3e57816020015b610f2b6121fb565b815260200190600190039081610f235790505b5090505f600190505b60035481116111565760025f8281526020019081526020015f20604051806101000160405290815f8201548152602001600182018054610f8690612c5e565b80601f0160208091040260200160405190810160405280929190818152602001828054610fb290612c5e565b8015610ffd5780601f10610fd457610100808354040283529160200191610ffd565b820191905f5260205f20905b815481529060010190602001808311610fe057829003601f168201915b50505050508152602001600282015f9054906101000a900460ff16600481111561102a576110296123cd565b5b600481111561103c5761103b6123cd565b5b81526020016002820160019054906101000a900473ffffffffffffffffffffffffffffffffffffffff1673ffffffffffffffffffffffffffffffffffffffff1673ffffffffffffffffffffffffffffffffffffffff168152602001600382015f9054906101000a900473ffffffffffffffffffffffffffffffffffffffff1673ffffffffffffffffffffffffffffffffffffffff1673ffffffffffffffffffffffffffffffffffffffff1681526020016004820154815260200160058201548152602001600682015f9054906101000a900460ff161515151581525050826001836111279190613143565b8151811061113857611137612c8e565b5b6020026020010181905250808061114e90612e96565b915050610f47565b508091505090565b6111666119e1565b61116e611bcb565b565b5f5f61117a611c3a565b9050805f015f9054906101000a900473ffffffffffffffffffffffffffffffffffffffff1691505090565b6111ad6119e1565b815f60025f8381526020019081526020015f205f015403611203576040517f08c379a00000000000000000000000000000000000000000000000000000000081526004016111fa90612c13565b60405180910390fd5b61120b611a95565b5f60025f8581526020019081526020015f20905082816002015f6101000a81548160ff02191690836004811115611245576112446123cd565b5b02179055507f9a4f521400d1b2f610a5c4845f80b4d79e3ec73d18e977ac9e0b0e6e741ec85f848460405161127b929190613185565b60405180910390a150505050565b6040518060400160405280600581526020017f352e302e3000000000000000000000000000000000000000000000000000000081525081565b60045f9054906101000a900473ffffffffffffffffffffffffffffffffffffffff1681565b5f6112f0611c61565b90505f815f0160089054906101000a900460ff161590505f825f015f9054906101000a900467ffffffffffffffff1690505f5f8267ffffffffffffffff161480156113385750825b90505f60018367ffffffffffffffff1614801561136b57505f3073ffffffffffffffffffffffffffffffffffffffff163b145b905081158015611379575080155b156113b0576040517ff92ee8a900000000000000000000000000000000000000000000000000000000815260040160405180910390fd5b6001855f015f6101000a81548167ffffffffffffffff021916908367ffffffffffffffff16021790555083156113fd576001855f0160086101000a81548160ff0219169083151502179055505b61140633611c74565b61140e611c88565b8560045f6101000a81548173ffffffffffffffffffffffffffffffffffffffff021916908373ffffffffffffffffffffffffffffffffffffffff16021790555083156114a8575f855f0160086101000a81548160ff0219169083151502179055507fc7f505b2f371ae2175ee4913f4499e1f2633a7b5936321eed1cdaeb6115181d2600160405161149f91906131f8565b60405180910390a15b505050505050565b565b6114ba6119e1565b805f60025f8381526020019081526020015f205f015403611510576040517f08c379a000000000000000000000000000000000000000000000000000000000815260040161150790612c13565b60405180910390fd5b825f60045f9054906101000a900473ffffffffffffffffffffffffffffffffffffffff1673ffffffffffffffffffffffffffffffffffffffff1663d3e96693836040518263ffffffff1660e01b815260040161156c919061230a565b5f60405180830381865afa158015611586573d5f5f3e3d5ffd5b505050506040513d5f823e3d601f19601f820116820180604052508101906115ae9190613342565b905080604001516115f4576040517f08c379a00000000000000000000000000000000000000000000000000000000081526004016115eb906133d3565b60405180910390fd5b6115fc611a95565b5f60025f8681526020019081526020015f2090508581600401819055505f5f8781526020019081526020015f2085908060018154018082558091505060019003905f5260205f20015f90919091909150557f25e5c814bf9313a0efe86f97f5d6ad2921089c376aa35ab12fc2c495546755ee858760405161167e9291906133f1565b60405180910390a1505050505050565b6116966119e1565b5f73ffffffffffffffffffffffffffffffffffffffff168173ffffffffffffffffffffffffffffffffffffffff1603611706575f6040517f1e4fbdf70000000000000000000000000000000000000000000000000000000081526004016116fd9190612a48565b60405180910390fd5b61170f81611afa565b50565b61171a6119e1565b611722611c92565b565b7f000000000000000000000000000000000000000000000000000000000000000073ffffffffffffffffffffffffffffffffffffffff163073ffffffffffffffffffffffffffffffffffffffff1614806117d157507f000000000000000000000000000000000000000000000000000000000000000073ffffffffffffffffffffffffffffffffffffffff166117b8611d00565b73ffffffffffffffffffffffffffffffffffffffff1614155b15611808576040517fe07c8dba00000000000000000000000000000000000000000000000000000000815260040160405180910390fd5b565b6118126119e1565b50565b8173ffffffffffffffffffffffffffffffffffffffff166352d1902d6040518163ffffffff1660e01b8152600401602060405180830381865afa92505050801561187d57506040513d601f19601f8201168201806040525081019061187a9190613442565b60015b6118be57816040517f4c9c8ce30000000000000000000000000000000000000000000000000000000081526004016118b59190612a48565b60405180910390fd5b7f360894a13ba1a3210667c828492db98dca3e2076cc3735a920a3ca505d382bbc5f1b811461192457806040517faa1d49a400000000000000000000000000000000000000000000000000000000815260040161191b91906128d6565b60405180910390fd5b61192e8383611d53565b505050565b7f000000000000000000000000000000000000000000000000000000000000000073ffffffffffffffffffffffffffffffffffffffff163073ffffffffffffffffffffffffffffffffffffffff16146119b8576040517fe07c8dba00000000000000000000000000000000000000000000000000000000815260040160405180910390fd5b565b5f7fcd5ed15c6e187e77e9aee88184c21f4f2182ab5827cb3b7e07fbedcd63f03300905090565b6119e9611dc5565b73ffffffffffffffffffffffffffffffffffffffff16611a07611170565b73ffffffffffffffffffffffffffffffffffffffff1614611a6657611a2a611dc5565b6040517f118cdaa7000000000000000000000000000000000000000000000000000000008152600401611a5d9190612a48565b60405180910390fd5b565b611a70611dcc565b611a936001611a85611a80611e0d565b611e36565b611e3f90919063ffffffff16565b565b611a9d610a04565b15611ad4576040517fd93c066500000000000000000000000000000000000000000000000000000000815260040160405180910390fd5b565b611af85f611aea611ae5611e0d565b611e36565b611e3f90919063ffffffff16565b565b5f611b03611c3a565b90505f815f015f9054906101000a900473ffffffffffffffffffffffffffffffffffffffff16905082825f015f6101000a81548173ffffffffffffffffffffffffffffffffffffffff021916908373ffffffffffffffffffffffffffffffffffffffff1602179055508273ffffffffffffffffffffffffffffffffffffffff168173ffffffffffffffffffffffffffffffffffffffff167f8be0079c531659141344cd1fd0a4f28419497f9722a3daafe3b4186f6b6457e060405160405180910390a3505050565b611bd3611a95565b5f611bdc6119ba565b90506001815f015f6101000a81548160ff0219169083151502179055507f62e78cea01bee320cd4e420270b5ea74000d11b0c9f74754ebdbfc544b05a258611c22611dc5565b604051611c2f9190612a48565b60405180910390a150565b5f7f9016d09d72d40fdae2fd8ceac6b6234c7706214fd39c1cd1e609a0528c199300905090565b5f5f611c6b611e46565b90508091505090565b611c7c611e6f565b611c8581611eaf565b50565b611c90611e6f565b565b611c9a611f33565b5f611ca36119ba565b90505f815f015f6101000a81548160ff0219169083151502179055507f5db9ee0a495bf2e6ff9c91a7834c1ba4fdd244a5e8aa4e537bd38aeae4b073aa611ce8611dc5565b604051611cf59190612a48565b60405180910390a150565b5f611d2c7f360894a13ba1a3210667c828492db98dca3e2076cc3735a920a3ca505d382bbc5f1b611f73565b5f015f9054906101000a900473ffffffffffffffffffffffffffffffffffffffff16905090565b611d5c82611f7c565b8173ffffffffffffffffffffffffffffffffffffffff167fbc7cd75a20ee27fd9adebab32041f755214dbc6bffa90cc0225b39da2e5c2d3b60405160405180910390a25f81511115611db857611db28282612045565b50611dc1565b611dc0612136565b5b5050565b5f33905090565b611dd4612172565b15611e0b576040517f3ee5aeb500000000000000000000000000000000000000000000000000000000815260040160405180910390fd5b565b5f7f9b779b17422d0df92223018b32b4d1fa46e071723d6817e2486d003becc55f005f1b905090565b5f819050919050565b80825d5050565b5f7ff0c57e16840df040f15088dc2f81fe391c3923bec73e23a9662efc9c229c6a005f1b905090565b611e77612190565b611ead576040517fd7e6bcf800000000000000000000000000000000000000000000000000000000815260040160405180910390fd5b565b611eb7611e6f565b5f73ffffffffffffffffffffffffffffffffffffffff168173ffffffffffffffffffffffffffffffffffffffff1603611f27575f6040517f1e4fbdf7000000000000000000000000000000000000000000000000000000008152600401611f1e9190612a48565b60405180910390fd5b611f3081611afa565b50565b611f3b610a04565b611f71576040517f8dfc202b00000000000000000000000000000000000000000000000000000000815260040160405180910390fd5b565b5f819050919050565b5f8173ffffffffffffffffffffffffffffffffffffffff163b03611fd757806040517f4c9c8ce3000000000000000000000000000000000000000000000000000000008152600401611fce9190612a48565b60405180910390fd5b806120037f360894a13ba1a3210667c828492db98dca3e2076cc3735a920a3ca505d382bbc5f1b611f73565b5f015f6101000a81548173ffffffffffffffffffffffffffffffffffffffff021916908373ffffffffffffffffffffffffffffffffffffffff16021790555050565b60605f61205284846121ae565b905080801561208857505f6120656121c2565b118061208757505f8473ffffffffffffffffffffffffffffffffffffffff163b115b5b1561209d576120956121c9565b915050612130565b80156120e057836040517f9996b3150000000000000000000000000000000000000000000000000000000081526004016120d79190612a48565b60405180910390fd5b5f6120e96121c2565b11156120fc576120f76121e6565b61212e565b6040517fd6bda27500000000000000000000000000000000000000000000000000000000815260040160405180910390fd5b505b92915050565b5f341115612170576040517fb398979f00000000000000000000000000000000000000000000000000000000815260040160405180910390fd5b565b5f61218b612186612181611e0d565b611e36565b6121f1565b905090565b5f612199611c61565b5f0160089054906101000a900460ff16905090565b5f5f5f835160208501865af4905092915050565b5f3d905090565b606060405190503d81523d5f602083013e3d602001810160405290565b6040513d5f823e3d81fd5b5f815c9050919050565b6040518061010001604052805f8152602001606081526020015f6004811115612227576122266123cd565b5b81526020015f73ffffffffffffffffffffffffffffffffffffffff1681526020015f73ffffffffffffffffffffffffffffffffffffffff1681526020015f81526020015f81526020015f151581525090565b5f604051905090565b5f5ffd5b5f5ffd5b5f819050919050565b61229c8161228a565b81146122a6575f5ffd5b50565b5f813590506122b781612293565b92915050565b5f5f604083850312156122d3576122d2612282565b5b5f6122e0858286016122a9565b92505060206122f1858286016122a9565b9150509250929050565b6123048161228a565b82525050565b5f60208201905061231d5f8301846122fb565b92915050565b5f6020828403121561233857612337612282565b5b5f612345848285016122a9565b91505092915050565b6123578161228a565b82525050565b5f81519050919050565b5f82825260208201905092915050565b8281835e5f83830152505050565b5f601f19601f8301169050919050565b5f61239f8261235d565b6123a98185612367565b93506123b9818560208601612377565b6123c281612385565b840191505092915050565b7f4e487b71000000000000000000000000000000000000000000000000000000005f52602160045260245ffd5b6005811061240b5761240a6123cd565b5b50565b5f81905061241b826123fa565b919050565b5f61242a8261240e565b9050919050565b61243a81612420565b82525050565b5f73ffffffffffffffffffffffffffffffffffffffff82169050919050565b5f61246982612440565b9050919050565b6124798161245f565b82525050565b5f61248982612440565b9050919050565b6124998161247f565b82525050565b5f8115159050919050565b6124b38161249f565b82525050565b5f61010083015f8301516124cf5f86018261234e565b50602083015184820360208601526124e78282612395565b91505060408301516124fc6040860182612431565b50606083015161250f6060860182612470565b5060808301516125226080860182612490565b5060a083015161253560a086018261234e565b5060c083015161254860c086018261234e565b5060e083015161255b60e08601826124aa565b508091505092915050565b5f6020820190508181035f83015261257e81846124b9565b905092915050565b5f81519050919050565b5f82825260208201905092915050565b5f819050602082019050919050565b5f61010083015f8301516125c55f86018261234e565b50602083015184820360208601526125dd8282612395565b91505060408301516125f26040860182612431565b5060608301516126056060860182612470565b5060808301516126186080860182612490565b5060a083015161262b60a086018261234e565b5060c083015161263e60c086018261234e565b5060e083015161265160e08601826124aa565b508091505092915050565b5f61266783836125af565b905092915050565b5f602082019050919050565b5f61268582612586565b61268f8185612590565b9350836020820285016126a1856125a0565b805f5b858110156126dc57848403895281516126bd858261265c565b94506126c88361266f565b925060208a019950506001810190506126a4565b50829750879550505050505092915050565b5f6020820190508181035f830152612706818461267b565b905092915050565b6127178161245f565b8114612721575f5ffd5b50565b5f813590506127328161270e565b92915050565b5f5ffd5b5f5ffd5b7f4e487b71000000000000000000000000000000000000000000000000000000005f52604160045260245ffd5b61277682612385565b810181811067ffffffffffffffff8211171561279557612794612740565b5b80604052505050565b5f6127a7612279565b90506127b3828261276d565b919050565b5f67ffffffffffffffff8211156127d2576127d1612740565b5b6127db82612385565b9050602081019050919050565b828183375f83830152505050565b5f612808612803846127b8565b61279e565b9050828152602081018484840111156128245761282361273c565b5b61282f8482856127e8565b509392505050565b5f82601f83011261284b5761284a612738565b5b813561285b8482602086016127f6565b91505092915050565b5f5f6040838503121561287a57612879612282565b5b5f61288785828601612724565b925050602083013567ffffffffffffffff8111156128a8576128a7612286565b5b6128b485828601612837565b9150509250929050565b5f819050919050565b6128d0816128be565b82525050565b5f6020820190506128e95f8301846128c7565b92915050565b6128f88161249f565b82525050565b5f6020820190506129115f8301846128ef565b92915050565b5f67ffffffffffffffff82111561293157612930612740565b5b61293a82612385565b9050602081019050919050565b5f61295961295484612917565b61279e565b9050828152602081018484840111156129755761297461273c565b5b6129808482856127e8565b509392505050565b5f82601f83011261299c5761299b612738565b5b81356129ac848260208601612947565b91505092915050565b6129be8161247f565b81146129c8575f5ffd5b50565b5f813590506129d9816129b5565b92915050565b5f5f604083850312156129f5576129f4612282565b5b5f83013567ffffffffffffffff811115612a1257612a11612286565b5b612a1e85828601612988565b9250506020612a2f858286016129cb565b9150509250929050565b612a428161245f565b82525050565b5f602082019050612a5b5f830184612a39565b92915050565b60058110612a6d575f5ffd5b50565b5f81359050612a7e81612a61565b92915050565b5f5f60408385031215612a9a57612a99612282565b5b5f612aa7858286016122a9565b9250506020612ab885828601612a70565b9150509250929050565b5f82825260208201905092915050565b5f612adc8261235d565b612ae68185612ac2565b9350612af6818560208601612377565b612aff81612385565b840191505092915050565b5f6020820190508181035f830152612b228184612ad2565b905092915050565b5f819050919050565b5f612b4d612b48612b4384612440565b612b2a565b612440565b9050919050565b5f612b5e82612b33565b9050919050565b5f612b6f82612b54565b9050919050565b612b7f81612b65565b82525050565b5f602082019050612b985f830184612b76565b92915050565b5f60208284031215612bb357612bb2612282565b5b5f612bc084828501612724565b91505092915050565b7f4775696c64426f6172643a207461736b20646f6573206e6f74206578697374005f82015250565b5f612bfd601f83612ac2565b9150612c0882612bc9565b602082019050919050565b5f6020820190508181035f830152612c2a81612bf1565b9050919050565b7f4e487b71000000000000000000000000000000000000000000000000000000005f52602260045260245ffd5b5f6002820490506001821680612c7557607f821691505b602082108103612c8857612c87612c31565b5b50919050565b7f4e487b71000000000000000000000000000000000000000000000000000000005f52603260045260245ffd5b7f4775696c64426f6172643a207461736b206e6f742076657269666965640000005f82015250565b5f612cef601d83612ac2565b9150612cfa82612cbb565b602082019050919050565b5f6020820190508181035f830152612d1c81612ce3565b9050919050565b7f4775696c64426f6172643a20616c7265616479207061696400000000000000005f82015250565b5f612d57601883612ac2565b9150612d6282612d23565b602082019050919050565b5f6020820190508181035f830152612d8481612d4b565b9050919050565b5f81905092915050565b50565b5f612da35f83612d8b565b9150612dae82612d95565b5f82019050919050565b5f612dc282612d98565b9150819050919050565b7f4775696c64426f6172643a207061796d656e74206661696c65640000000000005f82015250565b5f612e00601a83612ac2565b9150612e0b82612dcc565b602082019050919050565b5f6020820190508181035f830152612e2d81612df4565b9050919050565b5f606082019050612e475f8301866122fb565b612e5460208301856122fb565b612e6160408301846122fb565b949350505050565b7f4e487b71000000000000000000000000000000000000000000000000000000005f52601160045260245ffd5b5f612ea08261228a565b91507fffffffffffffffffffffffffffffffffffffffffffffffffffffffffffffffff8203612ed257612ed1612e69565b5b600182019050919050565b5f819050815f5260205f209050919050565b5f6020601f8301049050919050565b5f82821b905092915050565b5f60088302612f397fffffffffffffffffffffffffffffffffffffffffffffffffffffffffffffffff82612efe565b612f438683612efe565b95508019841693508086168417925050509392505050565b5f612f75612f70612f6b8461228a565b612b2a565b61228a565b9050919050565b5f819050919050565b612f8e83612f5b565b612fa2612f9a82612f7c565b848454612f0a565b825550505050565b5f5f905090565b612fb9612faa565b612fc4818484612f85565b505050565b5b81811015612fe757612fdc5f82612fb1565b600181019050612fca565b5050565b601f82111561302c57612ffd81612edd565b61300684612eef565b81016020851015613015578190505b61302961302185612eef565b830182612fc9565b50505b505050565b5f82821c905092915050565b5f61304c5f1984600802613031565b1980831691505092915050565b5f613064838361303d565b9150826002028217905092915050565b61307d8261235d565b67ffffffffffffffff81111561309657613095612740565b5b6130a08254612c5e565b6130ab828285612feb565b5f60209050601f8311600181146130dc575f84156130ca578287015190505b6130d48582613059565b86555061313b565b601f1984166130ea86612edd565b5f5b82811015613111578489015182556001820191506020850194506020810190506130ec565b8683101561312e578489015161312a601f89168261303d565b8355505b6001600288020188555050505b505050505050565b5f61314d8261228a565b91506131588361228a565b92508282039050818111156131705761316f612e69565b5b92915050565b61317f81612420565b82525050565b5f6040820190506131985f8301856122fb565b6131a56020830184613176565b9392505050565b5f819050919050565b5f67ffffffffffffffff82169050919050565b5f6131e26131dd6131d8846131ac565b612b2a565b6131b5565b9050919050565b6131f2816131c8565b82525050565b5f60208201905061320b5f8301846131e9565b92915050565b5f5ffd5b5f5ffd5b5f8151905061322781612293565b92915050565b5f61323f61323a84612917565b61279e565b90508281526020810184848401111561325b5761325a61273c565b5b613266848285612377565b509392505050565b5f82601f83011261328257613281612738565b5b815161329284826020860161322d565b91505092915050565b6132a48161249f565b81146132ae575f5ffd5b50565b5f815190506132bf8161329b565b92915050565b5f606082840312156132da576132d9613211565b5b6132e4606061279e565b90505f6132f384828501613219565b5f83015250602082015167ffffffffffffffff81111561331657613315613215565b5b6133228482850161326e565b6020830152506040613336848285016132b1565b60408301525092915050565b5f6020828403121561335757613356612282565b5b5f82015167ffffffffffffffff81111561337457613373612286565b5b613380848285016132c5565b91505092915050565b7f4775696c64426f6172643a206775696c64206973206e6f7420616374697665005f82015250565b5f6133bd601f83612ac2565b91506133c882613389565b602082019050919050565b5f6020820190508181035f8301526133ea816133b1565b9050919050565b5f6040820190506134045f8301856122fb565b61341160208301846122fb565b9392505050565b613421816128be565b811461342b575f5ffd5b50565b5f8151905061343c81613418565b92915050565b5f6020828403121561345757613456612282565b5b5f6134648482850161342e565b9150509291505056fea2646970667358221220da286d672cac47df1a007e37bbdcc4744984555f4c80a46803d1e8477ab856e564736f6c634300081c0033",
  "linkReferences": {},
  "deployedLinkReferences": {}
}